{
  "contracts/Governance2.sol": {
    "Governance2": {
      "abi": [
        {
          "anonymous": false,
          "inputs": [
            {
              "indexed": true,
              "internalType": "bytes32",
              "name": "key",
              "type": "bytes32"
            },
            {
              "indexed": true,
              "internalType": "uint256",
              "name": "value",
              "type": "uint256"
            },
            {
              "indexed": true,
              "internalType": "address",
              "name": "wallet",
              "type": "address"
            }
          ],
          "name": "ConfigSet",
          "type": "event"
        },
        {
          "anonymous": false,
          "inputs": [
            {
              "indexed": true,
              "internalType": "bytes32",
              "name": "key",
              "type": "bytes32"
            },
            {
              "indexed": true,
              "internalType": "uint256",
              "name": "value",
              "type": "uint256"
            }
          ],
          "name": "GlobalConfigSet",
          "type": "event"
        },
        {
          "anonymous": false,
          "inputs": [
            {
              "indexed": true,
              "internalType": "bytes32",
              "name": "key",
              "type": "bytes32"
            },
            {
              "indexed": true,
              "internalType": "bool",
              "name": "value",
              "type": "bool"
            }
          ],
          "name": "GlobalKeySet",
          "type": "event"
        },
        {
          "anonymous": false,
          "inputs": [
            {
              "indexed": true,
              "internalType": "bytes4",
              "name": "sig",
              "type": "bytes4"
            },
            {
              "indexed": true,
              "internalType": "address",
              "name": "value",
              "type": "address"
            }
          ],
          "name": "GlobalModuleSet",
          "type": "event"
        },
        {
          "anonymous": false,
          "inputs": [
            {
              "indexed": false,
              "internalType": "address",
              "name": "wallet",
              "type": "address"
            },
            {
              "indexed": true,
              "internalType": "address",
              "name": "module",
              "type": "address"
            },
            {
              "indexed": false,
              "internalType": "bool",
              "name": "disabled",
              "type": "bool"
            }
          ],
          "name": "ModuleDisabled",
          "type": "event"
        },
        {
          "anonymous": false,
          "inputs": [
            {
              "indexed": true,
              "internalType": "bytes4",
              "name": "sig",
              "type": "bytes4"
            },
            {
              "indexed": true,
              "internalType": "address",
              "name": "value",
              "type": "address"
            },
            {
              "indexed": true,
              "internalType": "address",
              "name": "wallet",
              "type": "address"
            }
          ],
          "name": "ModuleSet",
          "type": "event"
        },
        {
          "anonymous": false,
          "inputs": [
            {
              "indexed": true,
              "internalType": "bytes32",
              "name": "role",
              "type": "bytes32"
            },
            {
              "indexed": true,
              "internalType": "bytes32",
              "name": "previousAdminRole",
              "type": "bytes32"
            },
            {
              "indexed": true,
              "internalType": "bytes32",
              "name": "newAdminRole",
              "type": "bytes32"
            }
          ],
          "name": "RoleAdminChanged",
          "type": "event"
        },
        {
          "anonymous": false,
          "inputs": [
            {
              "indexed": true,
              "internalType": "bytes32",
              "name": "role",
              "type": "bytes32"
            },
            {
              "indexed": true,
              "internalType": "address",
              "name": "account",
              "type": "address"
            },
            {
              "indexed": true,
              "internalType": "address",
              "name": "sender",
              "type": "address"
            }
          ],
          "name": "RoleGranted",
          "type": "event"
        },
        {
          "anonymous": false,
          "inputs": [
            {
              "indexed": true,
              "internalType": "bytes32",
              "name": "role",
              "type": "bytes32"
            },
            {
              "indexed": true,
              "internalType": "address",
              "name": "account",
              "type": "address"
            },
            {
              "indexed": true,
              "internalType": "address",
              "name": "sender",
              "type": "address"
            }
          ],
          "name": "RoleRevoked",
          "type": "event"
        },
        {
          "inputs": [],
          "name": "AUTHORIZATION_RATIO",
          "outputs": [
            {
              "internalType": "bytes32",
              "name": "",
              "type": "bytes32"
            }
          ],
          "stateMutability": "view",
          "type": "function"
        },
        {
          "inputs": [],
          "name": "DEFAULT_ADMIN_ROLE",
          "outputs": [
            {
              "internalType": "bytes32",
              "name": "",
              "type": "bytes32"
            }
          ],
          "stateMutability": "view",
          "type": "function"
        },
        {
          "inputs": [],
          "name": "GLOBAL_CONFIG",
          "outputs": [
            {
              "internalType": "address",
              "name": "",
              "type": "address"
            }
          ],
          "stateMutability": "view",
          "type": "function"
        },
        {
          "inputs": [],
          "name": "MODULE_ROLE",
          "outputs": [
            {
              "internalType": "bytes32",
              "name": "",
              "type": "bytes32"
            }
          ],
          "stateMutability": "view",
          "type": "function"
        },
        {
          "inputs": [
            {
              "internalType": "address",
              "name": "wallet",
              "type": "address"
            },
            {
              "internalType": "address",
              "name": "module",
              "type": "address"
            },
            {
              "internalType": "bool",
              "name": "disabled",
              "type": "bool"
            }
          ],
          "name": "disableModuleForWallet",
          "outputs": [],
          "stateMutability": "nonpayable",
          "type": "function"
        },
        {
          "inputs": [
            {
              "internalType": "address",
              "name": "wallet",
              "type": "address"
            },
            {
              "internalType": "bytes32",
              "name": "key",
              "type": "bytes32"
            }
          ],
          "name": "getConfig",
          "outputs": [
            {
              "internalType": "uint256",
              "name": "",
              "type": "uint256"
            }
          ],
          "stateMutability": "view",
          "type": "function"
        },
        {
          "inputs": [
            {
              "internalType": "bytes32",
              "name": "key",
              "type": "bytes32"
            }
          ],
          "name": "getGlobalOnlyKey",
          "outputs": [
            {
              "internalType": "bool",
              "name": "",
              "type": "bool"
            }
          ],
          "stateMutability": "view",
          "type": "function"
        },
        {
          "inputs": [
            {
              "internalType": "address",
              "name": "wallet",
              "type": "address"
            },
            {
              "internalType": "bytes4",
              "name": "sig",
              "type": "bytes4"
            }
          ],
          "name": "getModule",
          "outputs": [
            {
              "internalType": "address",
              "name": "",
              "type": "address"
            }
          ],
          "stateMutability": "view",
          "type": "function"
        },
        {
          "inputs": [],
          "name": "getNiftexWallet",
          "outputs": [
            {
              "internalType": "address",
              "name": "",
              "type": "address"
            }
          ],
          "stateMutability": "view",
          "type": "function"
        },
        {
          "inputs": [
            {
              "internalType": "bytes32",
              "name": "role",
              "type": "bytes32"
            }
          ],
          "name": "getRoleAdmin",
          "outputs": [
            {
              "internalType": "bytes32",
              "name": "",
              "type": "bytes32"
            }
          ],
          "stateMutability": "view",
          "type": "function"
        },
        {
          "inputs": [
            {
              "internalType": "bytes32",
              "name": "role",
              "type": "bytes32"
            },
            {
              "internalType": "uint256",
              "name": "index",
              "type": "uint256"
            }
          ],
          "name": "getRoleMember",
          "outputs": [
            {
              "internalType": "address",
              "name": "",
              "type": "address"
            }
          ],
          "stateMutability": "view",
          "type": "function"
        },
        {
          "inputs": [
            {
              "internalType": "bytes32",
              "name": "role",
              "type": "bytes32"
            }
          ],
          "name": "getRoleMemberCount",
          "outputs": [
            {
              "internalType": "uint256",
              "name": "",
              "type": "uint256"
            }
          ],
          "stateMutability": "view",
          "type": "function"
        },
        {
          "inputs": [
            {
              "internalType": "bytes32",
              "name": "role",
              "type": "bytes32"
            },
            {
              "internalType": "address",
              "name": "account",
              "type": "address"
            }
          ],
          "name": "grantRole",
          "outputs": [],
          "stateMutability": "nonpayable",
          "type": "function"
        },
        {
          "inputs": [
            {
              "internalType": "bytes32",
              "name": "role",
              "type": "bytes32"
            },
            {
              "internalType": "address",
              "name": "account",
              "type": "address"
            }
          ],
          "name": "hasRole",
          "outputs": [
            {
              "internalType": "bool",
              "name": "",
              "type": "bool"
            }
          ],
          "stateMutability": "view",
          "type": "function"
        },
        {
          "inputs": [],
          "name": "initialize",
          "outputs": [],
          "stateMutability": "nonpayable",
          "type": "function"
        },
        {
          "inputs": [
            {
              "internalType": "address",
              "name": "wallet",
              "type": "address"
            },
            {
              "internalType": "address",
              "name": "user",
              "type": "address"
            }
          ],
          "name": "isAuthorized",
          "outputs": [
            {
              "internalType": "bool",
              "name": "",
              "type": "bool"
            }
          ],
          "stateMutability": "view",
          "type": "function"
        },
        {
          "inputs": [
            {
              "internalType": "address",
              "name": "wallet",
              "type": "address"
            },
            {
              "internalType": "address",
              "name": "module",
              "type": "address"
            }
          ],
          "name": "isModule",
          "outputs": [
            {
              "internalType": "bool",
              "name": "",
              "type": "bool"
            }
          ],
          "stateMutability": "view",
          "type": "function"
        },
        {
          "inputs": [
            {
              "internalType": "bytes32",
              "name": "role",
              "type": "bytes32"
            },
            {
              "internalType": "address",
              "name": "account",
              "type": "address"
            }
          ],
          "name": "renounceRole",
          "outputs": [],
          "stateMutability": "nonpayable",
          "type": "function"
        },
        {
          "inputs": [
            {
              "internalType": "bytes32",
              "name": "role",
              "type": "bytes32"
            },
            {
              "internalType": "address",
              "name": "account",
              "type": "address"
            }
          ],
          "name": "revokeRole",
          "outputs": [],
          "stateMutability": "nonpayable",
          "type": "function"
        },
        {
          "inputs": [
            {
              "internalType": "bytes32",
              "name": "key",
              "type": "bytes32"
            },
            {
              "internalType": "uint256",
              "name": "value",
              "type": "uint256"
            }
          ],
          "name": "setConfig",
          "outputs": [],
          "stateMutability": "nonpayable",
          "type": "function"
        },
        {
          "inputs": [
            {
              "internalType": "bytes32",
              "name": "key",
              "type": "bytes32"
            },
            {
              "internalType": "uint256",
              "name": "value",
              "type": "uint256"
            }
          ],
          "name": "setGlobalConfig",
          "outputs": [],
          "stateMutability": "nonpayable",
          "type": "function"
        },
        {
          "inputs": [
            {
              "internalType": "bytes32",
              "name": "key",
              "type": "bytes32"
            },
            {
              "internalType": "bool",
              "name": "value",
              "type": "bool"
            }
          ],
          "name": "setGlobalKey",
          "outputs": [],
          "stateMutability": "nonpayable",
          "type": "function"
        },
        {
          "inputs": [
            {
              "internalType": "bytes4",
              "name": "sig",
              "type": "bytes4"
            },
            {
              "internalType": "address",
              "name": "value",
              "type": "address"
            }
          ],
          "name": "setGlobalModule",
          "outputs": [],
          "stateMutability": "nonpayable",
          "type": "function"
        },
        {
          "inputs": [
            {
              "internalType": "bytes4",
              "name": "sig",
              "type": "bytes4"
            },
            {
              "internalType": "address",
              "name": "value",
              "type": "address"
            }
          ],
          "name": "setModule",
          "outputs": [],
          "stateMutability": "nonpayable",
          "type": "function"
        },
        {
          "inputs": [
            {
              "internalType": "bytes4",
              "name": "interfaceId",
              "type": "bytes4"
            }
          ],
          "name": "supportsInterface",
          "outputs": [
            {
              "internalType": "bool",
              "name": "",
              "type": "bool"
            }
          ],
          "stateMutability": "view",
          "type": "function"
        }
      ],
      "evm": {
        "bytecode": {
          "linkReferences": {},
          "object": "608060405234801561001057600080fd5b506114a6806100206000396000f3fe608060405234801561001057600080fd5b50600436106101735760003560e01c80638129fc1c116100de578063afc172b911610097578063ca15c87311610071578063ca15c873146102f7578063d547741f1461030a578063dd0691fa1461031d578063edcad2821461033057610173565b8063afc172b9146102c9578063b61f53c7146102d1578063bf1eeb6b146102e457610173565b80638129fc1c146102785780639010d07c1461028057806391d1485414610293578063a217fddf146102a6578063a6b520c0146102ae578063a9d62ca4146102b657610173565b806336568abe1161013057806336568abe146102115780633b863f961461022457806365e4ad9e1461022c5780636c9cd4a51461023f57806377073983146102525780637a92553e1461026557610173565b806301faf36c1461017857806301ffc9a7146101a15780630927d604146101c157806315fe96dc146101d6578063248a9ca3146101eb5780632f2ff15d146101fe575b600080fd5b61018b6101863660046110ed565b610343565b60405161019891906112b8565b60405180910390f35b6101b46101af3660046111bc565b6103bf565b60405161019891906112ad565b6101c96103ec565b604051610198919061127e565b6101e96101e436600461119b565b6103fd565b005b61018b6101f936600461113f565b610448565b6101e961020c366004611157565b61045d565b6101e961021f366004611157565b610486565b61018b6104d5565b6101b461023a366004611079565b6104f9565b6101e961024d3660046111d6565b610642565b6101e961026036600461119b565b6106d7565b6101e96102733660046110ab565b610749565b6101e96107d0565b6101c961028e36600461119b565b610804565b6101b46102a1366004611157565b610823565b61018b61084c565b61018b610851565b6101c96102c4366004611116565b610875565b6101c961084c565b6101b46102df36600461113f565b6108ff565b6101e96102f23660046111d6565b610914565b61018b61030536600461113f565b610980565b6101e9610318366004611157565b610997565b6101e961032b366004611179565b6109b6565b6101b461033e366004611079565b610a16565b60008181527fac33ff75c19e70fe83507db0d683fd3465c996598dc972688b7ace676c89077b60209081526040808320546001600160a01b03861684526002835281842085855283528184205460059093529083205490919060ff16806103a8575080155b6103b257806103b4565b815b925050505b92915050565b60006001600160e01b03198216635a05180f60e01b14806103e457506103e482610a79565b90505b919050565b60006103f88180610804565b905090565b33600081815260026020908152604080832086845290915280822084905551839185917fd106312fdacf4b15754f725de8bebd90459e2368fd9c149553f0fe8d51a156ee9190a45050565b60009081526020819052604090206001015490565b61046682610448565b61047781610472610a9e565b610aa2565b6104818383610b06565b505050565b61048e610a9e565b6001600160a01b0316816001600160a01b0316146104c75760405162461bcd60e51b81526004016104be90611356565b60405180910390fd5b6104d18282610b28565b5050565b7f9f280153bc61a10b7af5e9374ead4471b587c3bdcab2b4ab6bdd38136e8544a181565b60006105bd670de0b6b3a7640000610531857f9f280153bc61a10b7af5e9374ead4471b587c3bdcab2b4ab6bdd38136e8544a1610343565b856001600160a01b03166318160ddd6040518163ffffffff1660e01b815260040160206040518083038186803b15801561056a57600080fd5b505afa15801561057e573d6000803e3d6000fd5b505050506040513d601f19601f820116820180604052508101906105a291906111f1565b6105ac91906113dd565b6105b691906113bd565b6001610b4a565b6040516370a0823160e01b81526001600160a01b038516906370a08231906105e990869060040161127e565b60206040518083038186803b15801561060157600080fd5b505afa158015610615573d6000803e3d6000fd5b505050506040513d601f19601f8201168201806040525081019061063991906111f1565b10159392505050565b61064d600033610823565b61065657600080fd5b6001600160e01b0319821660008181527f17ef568e3e12ab5b9c7254a8d58478811de00f9e6eb34345acd53bf8fd09d3ec602052604080822080546001600160a01b0319166001600160a01b03861690811790915590519092917fcd24af604e2c68e134dcda2b7ef7a55abe49359da9727a06c88d1ec369970e4c91a35050565b6106e2600033610823565b6106eb57600080fd5b60008281527fac33ff75c19e70fe83507db0d683fd3465c996598dc972688b7ace676c89077b602052604080822083905551829184917fcf1014faee467aa6f3af7c21539d04bb0b136fc7b46ca487395109cc9ae09b3d9190a35050565b610754600033610823565b61075d57600080fd5b6001600160a01b0383811660009081526003602090815260408083209386168084529390915290819020805460ff1916841515179055517f93c44b545e736937c6bc924dafefba7eae3ec0eff6daadf984af913876ca4258906107c39086908590611292565b60405180910390a2505050565b6107da6000610980565b156107f75760405162461bcd60e51b81526004016104be90611329565b610802600033610b61565b565b600082815260016020526040812061081c9083610b6b565b9392505050565b6000918252602082815260408084206001600160a01b0393909316845291905290205460ff1690565b600081565b7f5098275140f5753db46c42f6e139939968848633a1298402189fdfdafa69b45281565b6001600160e01b0319811660008181527f17ef568e3e12ab5b9c7254a8d58478811de00f9e6eb34345acd53bf8fd09d3ec60209081526040808320546001600160a01b038781168552600484528285209585529483528184205460059093529083205492939081169291169060ff16806103a857506001600160a01b038116156103b257806103b4565b60009081526005602052604090205460ff1690565b3360008181526004602090815260408083206001600160e01b03198716808552925280832080546001600160a01b0319166001600160a01b038716908117909155905190927f47147d51a586156cea67ea7933d8c746428be1ee60851352ed3678f30ed3b5b691a45050565b60008181526001602052604081206103e490610b77565b6109a082610448565b6109ac81610472610a9e565b6104818383610b28565b6109c1600033610823565b6109ca57600080fd5b600082815260056020526040808220805460ff19168415159081179091559051909184917f988c8730259020f85ba16fedfdd49bf63c978f5fe5e452bc841be9486c3ec49e9190a35050565b6000610a427f5098275140f5753db46c42f6e139939968848633a1298402189fdfdafa69b45283610823565b801561081c5750506001600160a01b03918216600090815260036020908152604080832093909416825291909152205460ff161590565b60006001600160e01b03198216637965db0b60e01b14806103e457506103e482610b82565b3390565b610aac8282610823565b6104d157610ac4816001600160a01b03166014610b9b565b610acf836020610b9b565b604051602001610ae0929190611209565b60408051601f198184030181529082905262461bcd60e51b82526104be916004016112c1565b610b108282610d4d565b60008281526001602052604090206104819082610dd2565b610b328282610de7565b60008281526001602052604090206104819082610e6a565b600081831015610b5a578161081c565b5090919050565b6104d18282610b06565b600061081c8383610e7f565b60006103e482610eb7565b6001600160e01b031981166301ffc9a760e01b14919050565b60606000610baa8360026113dd565b610bb59060026113a5565b67ffffffffffffffff811115610bdb57634e487b7160e01b600052604160045260246000fd5b6040519080825280601f01601f191660200182016040528015610c05576020820181803683370190505b509050600360fc1b81600081518110610c2e57634e487b7160e01b600052603260045260246000fd5b60200101906001600160f81b031916908160001a905350600f60fb1b81600181518110610c6b57634e487b7160e01b600052603260045260246000fd5b60200101906001600160f81b031916908160001a9053506000610c8f8460026113dd565b610c9a9060016113a5565b90505b6001811115610d2e576f181899199a1a9b1b9c1cb0b131b232b360811b85600f1660108110610cdc57634e487b7160e01b600052603260045260246000fd5b1a60f81b828281518110610d0057634e487b7160e01b600052603260045260246000fd5b60200101906001600160f81b031916908160001a90535060049490941c93610d2781611443565b9050610c9d565b50831561081c5760405162461bcd60e51b81526004016104be906112f4565b610d578282610823565b6104d1576000828152602081815260408083206001600160a01b03851684529091529020805460ff19166001179055610d8e610a9e565b6001600160a01b0316816001600160a01b0316837f2f8788117e7eff1d82e926ec794901d17c78024a50270940304540a733656f0d60405160405180910390a45050565b600061081c836001600160a01b038416610ebb565b610df18282610823565b156104d1576000828152602081815260408083206001600160a01b03851684529091529020805460ff19169055610e26610a9e565b6001600160a01b0316816001600160a01b0316837ff6391f5c32d9c69d2a47ea670b442974b53935d1edc7fd64eb21e047a839171b60405160405180910390a45050565b600061081c836001600160a01b038416610f05565b6000826000018281548110610ea457634e487b7160e01b600052603260045260246000fd5b9060005260206000200154905092915050565b5490565b6000610ec78383611022565b610efd575081546001818101845560008481526020808220909301849055845484825282860190935260409020919091556103b9565b5060006103b9565b60008181526001830160205260408120548015611018576000610f296001836113fc565b8554909150600090610f3d906001906113fc565b9050818114610fbe576000866000018281548110610f6b57634e487b7160e01b600052603260045260246000fd5b9060005260206000200154905080876000018481548110610f9c57634e487b7160e01b600052603260045260246000fd5b6000918252602080832090910192909255918252600188019052604090208390555b8554869080610fdd57634e487b7160e01b600052603160045260246000fd5b6001900381819060005260206000200160009055905585600101600086815260200190815260200160002060009055600193505050506103b9565b60009150506103b9565b60009081526001919091016020526040902054151590565b80356001600160a01b03811681146103e757600080fd5b803580151581146103e757600080fd5b80356001600160e01b0319811681146103e757600080fd5b6000806040838503121561108b578182fd5b6110948361103a565b91506110a26020840161103a565b90509250929050565b6000806000606084860312156110bf578081fd5b6110c88461103a565b92506110d66020850161103a565b91506110e460408501611051565b90509250925092565b600080604083850312156110ff578182fd5b6111088361103a565b946020939093013593505050565b60008060408385031215611128578182fd5b6111318361103a565b91506110a260208401611061565b600060208284031215611150578081fd5b5035919050565b60008060408385031215611169578182fd5b823591506110a26020840161103a565b6000806040838503121561118b578182fd5b823591506110a260208401611051565b600080604083850312156111ad578182fd5b50508035926020909101359150565b6000602082840312156111cd578081fd5b61081c82611061565b600080604083850312156111e8578182fd5b61109483611061565b600060208284031215611202578081fd5b5051919050565b60007f416363657373436f6e74726f6c3a206163636f756e742000000000000000000082528351611241816017850160208801611413565b7001034b99036b4b9b9b4b733903937b6329607d1b6017918401918201528351611272816028840160208801611413565b01602801949350505050565b6001600160a01b0391909116815260200190565b6001600160a01b039290921682521515602082015260400190565b901515815260200190565b90815260200190565b60006020825282518060208401526112e0816040850160208701611413565b601f01601f19169190910160400192915050565b6020808252818101527f537472696e67733a20686578206c656e67746820696e73756666696369656e74604082015260600190565b602080825260139082015272185b1c9958591e4b5a5b9a5d1a585b1a5e9959606a1b604082015260600190565b6020808252602f908201527f416363657373436f6e74726f6c3a2063616e206f6e6c792072656e6f756e636560408201526e103937b632b9903337b91039b2b63360891b606082015260800190565b600082198211156113b8576113b861145a565b500190565b6000826113d857634e487b7160e01b81526012600452602481fd5b500490565b60008160001904831182151516156113f7576113f761145a565b500290565b60008282101561140e5761140e61145a565b500390565b60005b8381101561142e578181015183820152602001611416565b8381111561143d576000848401525b50505050565b6000816114525761145261145a565b506000190190565b634e487b7160e01b600052601160045260246000fdfea2646970667358221220a4c9c08be1b83070d012e6880a545a7ef854d05b9611df21b7422775cba13ed764736f6c63430008010033",
          "opcodes": "PUSH1 0x80 PUSH1 0x40 MSTORE CALLVALUE DUP1 ISZERO PUSH2 0x10 JUMPI PUSH1 0x0 DUP1 REVERT JUMPDEST POP PUSH2 0x14A6 DUP1 PUSH2 0x20 PUSH1 0x0 CODECOPY PUSH1 0x0 RETURN INVALID PUSH1 0x80 PUSH1 0x40 MSTORE CALLVALUE DUP1 ISZERO PUSH2 0x10 JUMPI PUSH1 0x0 DUP1 REVERT JUMPDEST POP PUSH1 0x4 CALLDATASIZE LT PUSH2 0x173 JUMPI PUSH1 0x0 CALLDATALOAD PUSH1 0xE0 SHR DUP1 PUSH4 0x8129FC1C GT PUSH2 0xDE JUMPI DUP1 PUSH4 0xAFC172B9 GT PUSH2 0x97 JUMPI DUP1 PUSH4 0xCA15C873 GT PUSH2 0x71 JUMPI DUP1 PUSH4 0xCA15C873 EQ PUSH2 0x2F7 JUMPI DUP1 PUSH4 0xD547741F EQ PUSH2 0x30A JUMPI DUP1 PUSH4 0xDD0691FA EQ PUSH2 0x31D JUMPI DUP1 PUSH4 0xEDCAD282 EQ PUSH2 0x330 JUMPI PUSH2 0x173 JUMP JUMPDEST DUP1 PUSH4 0xAFC172B9 EQ PUSH2 0x2C9 JUMPI DUP1 PUSH4 0xB61F53C7 EQ PUSH2 0x2D1 JUMPI DUP1 PUSH4 0xBF1EEB6B EQ PUSH2 0x2E4 JUMPI PUSH2 0x173 JUMP JUMPDEST DUP1 PUSH4 0x8129FC1C EQ PUSH2 0x278 JUMPI DUP1 PUSH4 0x9010D07C EQ PUSH2 0x280 JUMPI DUP1 PUSH4 0x91D14854 EQ PUSH2 0x293 JUMPI DUP1 PUSH4 0xA217FDDF EQ PUSH2 0x2A6 JUMPI DUP1 PUSH4 0xA6B520C0 EQ PUSH2 0x2AE JUMPI DUP1 PUSH4 0xA9D62CA4 EQ PUSH2 0x2B6 JUMPI PUSH2 0x173 JUMP JUMPDEST DUP1 PUSH4 0x36568ABE GT PUSH2 0x130 JUMPI DUP1 PUSH4 0x36568ABE EQ PUSH2 0x211 JUMPI DUP1 PUSH4 0x3B863F96 EQ PUSH2 0x224 JUMPI DUP1 PUSH4 0x65E4AD9E EQ PUSH2 0x22C JUMPI DUP1 PUSH4 0x6C9CD4A5 EQ PUSH2 0x23F JUMPI DUP1 PUSH4 0x77073983 EQ PUSH2 0x252 JUMPI DUP1 PUSH4 0x7A92553E EQ PUSH2 0x265 JUMPI PUSH2 0x173 JUMP JUMPDEST DUP1 PUSH4 0x1FAF36C EQ PUSH2 0x178 JUMPI DUP1 PUSH4 0x1FFC9A7 EQ PUSH2 0x1A1 JUMPI DUP1 PUSH4 0x927D604 EQ PUSH2 0x1C1 JUMPI DUP1 PUSH4 0x15FE96DC EQ PUSH2 0x1D6 JUMPI DUP1 PUSH4 0x248A9CA3 EQ PUSH2 0x1EB JUMPI DUP1 PUSH4 0x2F2FF15D EQ PUSH2 0x1FE JUMPI JUMPDEST PUSH1 0x0 DUP1 REVERT JUMPDEST PUSH2 0x18B PUSH2 0x186 CALLDATASIZE PUSH1 0x4 PUSH2 0x10ED JUMP JUMPDEST PUSH2 0x343 JUMP JUMPDEST PUSH1 0x40 MLOAD PUSH2 0x198 SWAP2 SWAP1 PUSH2 0x12B8 JUMP JUMPDEST PUSH1 0x40 MLOAD DUP1 SWAP2 SUB SWAP1 RETURN JUMPDEST PUSH2 0x1B4 PUSH2 0x1AF CALLDATASIZE PUSH1 0x4 PUSH2 0x11BC JUMP JUMPDEST PUSH2 0x3BF JUMP JUMPDEST PUSH1 0x40 MLOAD PUSH2 0x198 SWAP2 SWAP1 PUSH2 0x12AD JUMP JUMPDEST PUSH2 0x1C9 PUSH2 0x3EC JUMP JUMPDEST PUSH1 0x40 MLOAD PUSH2 0x198 SWAP2 SWAP1 PUSH2 0x127E JUMP JUMPDEST PUSH2 0x1E9 PUSH2 0x1E4 CALLDATASIZE PUSH1 0x4 PUSH2 0x119B JUMP JUMPDEST PUSH2 0x3FD JUMP JUMPDEST STOP JUMPDEST PUSH2 0x18B PUSH2 0x1F9 CALLDATASIZE PUSH1 0x4 PUSH2 0x113F JUMP JUMPDEST PUSH2 0x448 JUMP JUMPDEST PUSH2 0x1E9 PUSH2 0x20C CALLDATASIZE PUSH1 0x4 PUSH2 0x1157 JUMP JUMPDEST PUSH2 0x45D JUMP JUMPDEST PUSH2 0x1E9 PUSH2 0x21F CALLDATASIZE PUSH1 0x4 PUSH2 0x1157 JUMP JUMPDEST PUSH2 0x486 JUMP JUMPDEST PUSH2 0x18B PUSH2 0x4D5 JUMP JUMPDEST PUSH2 0x1B4 PUSH2 0x23A CALLDATASIZE PUSH1 0x4 PUSH2 0x1079 JUMP JUMPDEST PUSH2 0x4F9 JUMP JUMPDEST PUSH2 0x1E9 PUSH2 0x24D CALLDATASIZE PUSH1 0x4 PUSH2 0x11D6 JUMP JUMPDEST PUSH2 0x642 JUMP JUMPDEST PUSH2 0x1E9 PUSH2 0x260 CALLDATASIZE PUSH1 0x4 PUSH2 0x119B JUMP JUMPDEST PUSH2 0x6D7 JUMP JUMPDEST PUSH2 0x1E9 PUSH2 0x273 CALLDATASIZE PUSH1 0x4 PUSH2 0x10AB JUMP JUMPDEST PUSH2 0x749 JUMP JUMPDEST PUSH2 0x1E9 PUSH2 0x7D0 JUMP JUMPDEST PUSH2 0x1C9 PUSH2 0x28E CALLDATASIZE PUSH1 0x4 PUSH2 0x119B JUMP JUMPDEST PUSH2 0x804 JUMP JUMPDEST PUSH2 0x1B4 PUSH2 0x2A1 CALLDATASIZE PUSH1 0x4 PUSH2 0x1157 JUMP JUMPDEST PUSH2 0x823 JUMP JUMPDEST PUSH2 0x18B PUSH2 0x84C JUMP JUMPDEST PUSH2 0x18B PUSH2 0x851 JUMP JUMPDEST PUSH2 0x1C9 PUSH2 0x2C4 CALLDATASIZE PUSH1 0x4 PUSH2 0x1116 JUMP JUMPDEST PUSH2 0x875 JUMP JUMPDEST PUSH2 0x1C9 PUSH2 0x84C JUMP JUMPDEST PUSH2 0x1B4 PUSH2 0x2DF CALLDATASIZE PUSH1 0x4 PUSH2 0x113F JUMP JUMPDEST PUSH2 0x8FF JUMP JUMPDEST PUSH2 0x1E9 PUSH2 0x2F2 CALLDATASIZE PUSH1 0x4 PUSH2 0x11D6 JUMP JUMPDEST PUSH2 0x914 JUMP JUMPDEST PUSH2 0x18B PUSH2 0x305 CALLDATASIZE PUSH1 0x4 PUSH2 0x113F JUMP JUMPDEST PUSH2 0x980 JUMP JUMPDEST PUSH2 0x1E9 PUSH2 0x318 CALLDATASIZE PUSH1 0x4 PUSH2 0x1157 JUMP JUMPDEST PUSH2 0x997 JUMP JUMPDEST PUSH2 0x1E9 PUSH2 0x32B CALLDATASIZE PUSH1 0x4 PUSH2 0x1179 JUMP JUMPDEST PUSH2 0x9B6 JUMP JUMPDEST PUSH2 0x1B4 PUSH2 0x33E CALLDATASIZE PUSH1 0x4 PUSH2 0x1079 JUMP JUMPDEST PUSH2 0xA16 JUMP JUMPDEST PUSH1 0x0 DUP2 DUP2 MSTORE PUSH32 0xAC33FF75C19E70FE83507DB0D683FD3465C996598DC972688B7ACE676C89077B PUSH1 0x20 SWAP1 DUP2 MSTORE PUSH1 0x40 DUP1 DUP4 KECCAK256 SLOAD PUSH1 0x1 PUSH1 0x1 PUSH1 0xA0 SHL SUB DUP7 AND DUP5 MSTORE PUSH1 0x2 DUP4 MSTORE DUP2 DUP5 KECCAK256 DUP6 DUP6 MSTORE DUP4 MSTORE DUP2 DUP5 KECCAK256 SLOAD PUSH1 0x5 SWAP1 SWAP4 MSTORE SWAP1 DUP4 KECCAK256 SLOAD SWAP1 SWAP2 SWAP1 PUSH1 0xFF AND DUP1 PUSH2 0x3A8 JUMPI POP DUP1 ISZERO JUMPDEST PUSH2 0x3B2 JUMPI DUP1 PUSH2 0x3B4 JUMP JUMPDEST DUP2 JUMPDEST SWAP3 POP POP POP JUMPDEST SWAP3 SWAP2 POP POP JUMP JUMPDEST PUSH1 0x0 PUSH1 0x1 PUSH1 0x1 PUSH1 0xE0 SHL SUB NOT DUP3 AND PUSH4 0x5A05180F PUSH1 0xE0 SHL EQ DUP1 PUSH2 0x3E4 JUMPI POP PUSH2 0x3E4 DUP3 PUSH2 0xA79 JUMP JUMPDEST SWAP1 POP JUMPDEST SWAP2 SWAP1 POP JUMP JUMPDEST PUSH1 0x0 PUSH2 0x3F8 DUP2 DUP1 PUSH2 0x804 JUMP JUMPDEST SWAP1 POP SWAP1 JUMP JUMPDEST CALLER PUSH1 0x0 DUP2 DUP2 MSTORE PUSH1 0x2 PUSH1 0x20 SWAP1 DUP2 MSTORE PUSH1 0x40 DUP1 DUP4 KECCAK256 DUP7 DUP5 MSTORE SWAP1 SWAP2 MSTORE DUP1 DUP3 KECCAK256 DUP5 SWAP1 SSTORE MLOAD DUP4 SWAP2 DUP6 SWAP2 PUSH32 0xD106312FDACF4B15754F725DE8BEBD90459E2368FD9C149553F0FE8D51A156EE SWAP2 SWAP1 LOG4 POP POP JUMP JUMPDEST PUSH1 0x0 SWAP1 DUP2 MSTORE PUSH1 0x20 DUP2 SWAP1 MSTORE PUSH1 0x40 SWAP1 KECCAK256 PUSH1 0x1 ADD SLOAD SWAP1 JUMP JUMPDEST PUSH2 0x466 DUP3 PUSH2 0x448 JUMP JUMPDEST PUSH2 0x477 DUP2 PUSH2 0x472 PUSH2 0xA9E JUMP JUMPDEST PUSH2 0xAA2 JUMP JUMPDEST PUSH2 0x481 DUP4 DUP4 PUSH2 0xB06 JUMP JUMPDEST POP POP POP JUMP JUMPDEST PUSH2 0x48E PUSH2 0xA9E JUMP JUMPDEST PUSH1 0x1 PUSH1 0x1 PUSH1 0xA0 SHL SUB AND DUP2 PUSH1 0x1 PUSH1 0x1 PUSH1 0xA0 SHL SUB AND EQ PUSH2 0x4C7 JUMPI PUSH1 0x40 MLOAD PUSH3 0x461BCD PUSH1 0xE5 SHL DUP2 MSTORE PUSH1 0x4 ADD PUSH2 0x4BE SWAP1 PUSH2 0x1356 JUMP JUMPDEST PUSH1 0x40 MLOAD DUP1 SWAP2 SUB SWAP1 REVERT JUMPDEST PUSH2 0x4D1 DUP3 DUP3 PUSH2 0xB28 JUMP JUMPDEST POP POP JUMP JUMPDEST PUSH32 0x9F280153BC61A10B7AF5E9374EAD4471B587C3BDCAB2B4AB6BDD38136E8544A1 DUP2 JUMP JUMPDEST PUSH1 0x0 PUSH2 0x5BD PUSH8 0xDE0B6B3A7640000 PUSH2 0x531 DUP6 PUSH32 0x9F280153BC61A10B7AF5E9374EAD4471B587C3BDCAB2B4AB6BDD38136E8544A1 PUSH2 0x343 JUMP JUMPDEST DUP6 PUSH1 0x1 PUSH1 0x1 PUSH1 0xA0 SHL SUB AND PUSH4 0x18160DDD PUSH1 0x40 MLOAD DUP2 PUSH4 0xFFFFFFFF AND PUSH1 0xE0 SHL DUP2 MSTORE PUSH1 0x4 ADD PUSH1 0x20 PUSH1 0x40 MLOAD DUP1 DUP4 SUB DUP2 DUP7 DUP1 EXTCODESIZE ISZERO DUP1 ISZERO PUSH2 0x56A JUMPI PUSH1 0x0 DUP1 REVERT JUMPDEST POP GAS STATICCALL ISZERO DUP1 ISZERO PUSH2 0x57E JUMPI RETURNDATASIZE PUSH1 0x0 DUP1 RETURNDATACOPY RETURNDATASIZE PUSH1 0x0 REVERT JUMPDEST POP POP POP POP PUSH1 0x40 MLOAD RETURNDATASIZE PUSH1 0x1F NOT PUSH1 0x1F DUP3 ADD AND DUP3 ADD DUP1 PUSH1 0x40 MSTORE POP DUP2 ADD SWAP1 PUSH2 0x5A2 SWAP2 SWAP1 PUSH2 0x11F1 JUMP JUMPDEST PUSH2 0x5AC SWAP2 SWAP1 PUSH2 0x13DD JUMP JUMPDEST PUSH2 0x5B6 SWAP2 SWAP1 PUSH2 0x13BD JUMP JUMPDEST PUSH1 0x1 PUSH2 0xB4A JUMP JUMPDEST PUSH1 0x40 MLOAD PUSH4 0x70A08231 PUSH1 0xE0 SHL DUP2 MSTORE PUSH1 0x1 PUSH1 0x1 PUSH1 0xA0 SHL SUB DUP6 AND SWAP1 PUSH4 0x70A08231 SWAP1 PUSH2 0x5E9 SWAP1 DUP7 SWAP1 PUSH1 0x4 ADD PUSH2 0x127E JUMP JUMPDEST PUSH1 0x20 PUSH1 0x40 MLOAD DUP1 DUP4 SUB DUP2 DUP7 DUP1 EXTCODESIZE ISZERO DUP1 ISZERO PUSH2 0x601 JUMPI PUSH1 0x0 DUP1 REVERT JUMPDEST POP GAS STATICCALL ISZERO DUP1 ISZERO PUSH2 0x615 JUMPI RETURNDATASIZE PUSH1 0x0 DUP1 RETURNDATACOPY RETURNDATASIZE PUSH1 0x0 REVERT JUMPDEST POP POP POP POP PUSH1 0x40 MLOAD RETURNDATASIZE PUSH1 0x1F NOT PUSH1 0x1F DUP3 ADD AND DUP3 ADD DUP1 PUSH1 0x40 MSTORE POP DUP2 ADD SWAP1 PUSH2 0x639 SWAP2 SWAP1 PUSH2 0x11F1 JUMP JUMPDEST LT ISZERO SWAP4 SWAP3 POP POP POP JUMP JUMPDEST PUSH2 0x64D PUSH1 0x0 CALLER PUSH2 0x823 JUMP JUMPDEST PUSH2 0x656 JUMPI PUSH1 0x0 DUP1 REVERT JUMPDEST PUSH1 0x1 PUSH1 0x1 PUSH1 0xE0 SHL SUB NOT DUP3 AND PUSH1 0x0 DUP2 DUP2 MSTORE PUSH32 0x17EF568E3E12AB5B9C7254A8D58478811DE00F9E6EB34345ACD53BF8FD09D3EC PUSH1 0x20 MSTORE PUSH1 0x40 DUP1 DUP3 KECCAK256 DUP1 SLOAD PUSH1 0x1 PUSH1 0x1 PUSH1 0xA0 SHL SUB NOT AND PUSH1 0x1 PUSH1 0x1 PUSH1 0xA0 SHL SUB DUP7 AND SWAP1 DUP2 OR SWAP1 SWAP2 SSTORE SWAP1 MLOAD SWAP1 SWAP3 SWAP2 PUSH32 0xCD24AF604E2C68E134DCDA2B7EF7A55ABE49359DA9727A06C88D1EC369970E4C SWAP2 LOG3 POP POP JUMP JUMPDEST PUSH2 0x6E2 PUSH1 0x0 CALLER PUSH2 0x823 JUMP JUMPDEST PUSH2 0x6EB JUMPI PUSH1 0x0 DUP1 REVERT JUMPDEST PUSH1 0x0 DUP3 DUP2 MSTORE PUSH32 0xAC33FF75C19E70FE83507DB0D683FD3465C996598DC972688B7ACE676C89077B PUSH1 0x20 MSTORE PUSH1 0x40 DUP1 DUP3 KECCAK256 DUP4 SWAP1 SSTORE MLOAD DUP3 SWAP2 DUP5 SWAP2 PUSH32 0xCF1014FAEE467AA6F3AF7C21539D04BB0B136FC7B46CA487395109CC9AE09B3D SWAP2 SWAP1 LOG3 POP POP JUMP JUMPDEST PUSH2 0x754 PUSH1 0x0 CALLER PUSH2 0x823 JUMP JUMPDEST PUSH2 0x75D JUMPI PUSH1 0x0 DUP1 REVERT JUMPDEST PUSH1 0x1 PUSH1 0x1 PUSH1 0xA0 SHL SUB DUP4 DUP2 AND PUSH1 0x0 SWAP1 DUP2 MSTORE PUSH1 0x3 PUSH1 0x20 SWAP1 DUP2 MSTORE PUSH1 0x40 DUP1 DUP4 KECCAK256 SWAP4 DUP7 AND DUP1 DUP5 MSTORE SWAP4 SWAP1 SWAP2 MSTORE SWAP1 DUP2 SWAP1 KECCAK256 DUP1 SLOAD PUSH1 0xFF NOT AND DUP5 ISZERO ISZERO OR SWAP1 SSTORE MLOAD PUSH32 0x93C44B545E736937C6BC924DAFEFBA7EAE3EC0EFF6DAADF984AF913876CA4258 SWAP1 PUSH2 0x7C3 SWAP1 DUP7 SWAP1 DUP6 SWAP1 PUSH2 0x1292 JUMP JUMPDEST PUSH1 0x40 MLOAD DUP1 SWAP2 SUB SWAP1 LOG2 POP POP POP JUMP JUMPDEST PUSH2 0x7DA PUSH1 0x0 PUSH2 0x980 JUMP JUMPDEST ISZERO PUSH2 0x7F7 JUMPI PUSH1 0x40 MLOAD PUSH3 0x461BCD PUSH1 0xE5 SHL DUP2 MSTORE PUSH1 0x4 ADD PUSH2 0x4BE SWAP1 PUSH2 0x1329 JUMP JUMPDEST PUSH2 0x802 PUSH1 0x0 CALLER PUSH2 0xB61 JUMP JUMPDEST JUMP JUMPDEST PUSH1 0x0 DUP3 DUP2 MSTORE PUSH1 0x1 PUSH1 0x20 MSTORE PUSH1 0x40 DUP2 KECCAK256 PUSH2 0x81C SWAP1 DUP4 PUSH2 0xB6B JUMP JUMPDEST SWAP4 SWAP3 POP POP POP JUMP JUMPDEST PUSH1 0x0 SWAP2 DUP3 MSTORE PUSH1 0x20 DUP3 DUP2 MSTORE PUSH1 0x40 DUP1 DUP5 KECCAK256 PUSH1 0x1 PUSH1 0x1 PUSH1 0xA0 SHL SUB SWAP4 SWAP1 SWAP4 AND DUP5 MSTORE SWAP2 SWAP1 MSTORE SWAP1 KECCAK256 SLOAD PUSH1 0xFF AND SWAP1 JUMP JUMPDEST PUSH1 0x0 DUP2 JUMP JUMPDEST PUSH32 0x5098275140F5753DB46C42F6E139939968848633A1298402189FDFDAFA69B452 DUP2 JUMP JUMPDEST PUSH1 0x1 PUSH1 0x1 PUSH1 0xE0 SHL SUB NOT DUP2 AND PUSH1 0x0 DUP2 DUP2 MSTORE PUSH32 0x17EF568E3E12AB5B9C7254A8D58478811DE00F9E6EB34345ACD53BF8FD09D3EC PUSH1 0x20 SWAP1 DUP2 MSTORE PUSH1 0x40 DUP1 DUP4 KECCAK256 SLOAD PUSH1 0x1 PUSH1 0x1 PUSH1 0xA0 SHL SUB DUP8 DUP2 AND DUP6 MSTORE PUSH1 0x4 DUP5 MSTORE DUP3 DUP6 KECCAK256 SWAP6 DUP6 MSTORE SWAP5 DUP4 MSTORE DUP2 DUP5 KECCAK256 SLOAD PUSH1 0x5 SWAP1 SWAP4 MSTORE SWAP1 DUP4 KECCAK256 SLOAD SWAP3 SWAP4 SWAP1 DUP2 AND SWAP3 SWAP2 AND SWAP1 PUSH1 0xFF AND DUP1 PUSH2 0x3A8 JUMPI POP PUSH1 0x1 PUSH1 0x1 PUSH1 0xA0 SHL SUB DUP2 AND ISZERO PUSH2 0x3B2 JUMPI DUP1 PUSH2 0x3B4 JUMP JUMPDEST PUSH1 0x0 SWAP1 DUP2 MSTORE PUSH1 0x5 PUSH1 0x20 MSTORE PUSH1 0x40 SWAP1 KECCAK256 SLOAD PUSH1 0xFF AND SWAP1 JUMP JUMPDEST CALLER PUSH1 0x0 DUP2 DUP2 MSTORE PUSH1 0x4 PUSH1 0x20 SWAP1 DUP2 MSTORE PUSH1 0x40 DUP1 DUP4 KECCAK256 PUSH1 0x1 PUSH1 0x1 PUSH1 0xE0 SHL SUB NOT DUP8 AND DUP1 DUP6 MSTORE SWAP3 MSTORE DUP1 DUP4 KECCAK256 DUP1 SLOAD PUSH1 0x1 PUSH1 0x1 PUSH1 0xA0 SHL SUB NOT AND PUSH1 0x1 PUSH1 0x1 PUSH1 0xA0 SHL SUB DUP8 AND SWAP1 DUP2 OR SWAP1 SWAP2 SSTORE SWAP1 MLOAD SWAP1 SWAP3 PUSH32 0x47147D51A586156CEA67EA7933D8C746428BE1EE60851352ED3678F30ED3B5B6 SWAP2 LOG4 POP POP JUMP JUMPDEST PUSH1 0x0 DUP2 DUP2 MSTORE PUSH1 0x1 PUSH1 0x20 MSTORE PUSH1 0x40 DUP2 KECCAK256 PUSH2 0x3E4 SWAP1 PUSH2 0xB77 JUMP JUMPDEST PUSH2 0x9A0 DUP3 PUSH2 0x448 JUMP JUMPDEST PUSH2 0x9AC DUP2 PUSH2 0x472 PUSH2 0xA9E JUMP JUMPDEST PUSH2 0x481 DUP4 DUP4 PUSH2 0xB28 JUMP JUMPDEST PUSH2 0x9C1 PUSH1 0x0 CALLER PUSH2 0x823 JUMP JUMPDEST PUSH2 0x9CA JUMPI PUSH1 0x0 DUP1 REVERT JUMPDEST PUSH1 0x0 DUP3 DUP2 MSTORE PUSH1 0x5 PUSH1 0x20 MSTORE PUSH1 0x40 DUP1 DUP3 KECCAK256 DUP1 SLOAD PUSH1 0xFF NOT AND DUP5 ISZERO ISZERO SWAP1 DUP2 OR SWAP1 SWAP2 SSTORE SWAP1 MLOAD SWAP1 SWAP2 DUP5 SWAP2 PUSH32 0x988C8730259020F85BA16FEDFDD49BF63C978F5FE5E452BC841BE9486C3EC49E SWAP2 SWAP1 LOG3 POP POP JUMP JUMPDEST PUSH1 0x0 PUSH2 0xA42 PUSH32 0x5098275140F5753DB46C42F6E139939968848633A1298402189FDFDAFA69B452 DUP4 PUSH2 0x823 JUMP JUMPDEST DUP1 ISZERO PUSH2 0x81C JUMPI POP POP PUSH1 0x1 PUSH1 0x1 PUSH1 0xA0 SHL SUB SWAP2 DUP3 AND PUSH1 0x0 SWAP1 DUP2 MSTORE PUSH1 0x3 PUSH1 0x20 SWAP1 DUP2 MSTORE PUSH1 0x40 DUP1 DUP4 KECCAK256 SWAP4 SWAP1 SWAP5 AND DUP3 MSTORE SWAP2 SWAP1 SWAP2 MSTORE KECCAK256 SLOAD PUSH1 0xFF AND ISZERO SWAP1 JUMP JUMPDEST PUSH1 0x0 PUSH1 0x1 PUSH1 0x1 PUSH1 0xE0 SHL SUB NOT DUP3 AND PUSH4 0x7965DB0B PUSH1 0xE0 SHL EQ DUP1 PUSH2 0x3E4 JUMPI POP PUSH2 0x3E4 DUP3 PUSH2 0xB82 JUMP JUMPDEST CALLER SWAP1 JUMP JUMPDEST PUSH2 0xAAC DUP3 DUP3 PUSH2 0x823 JUMP JUMPDEST PUSH2 0x4D1 JUMPI PUSH2 0xAC4 DUP2 PUSH1 0x1 PUSH1 0x1 PUSH1 0xA0 SHL SUB AND PUSH1 0x14 PUSH2 0xB9B JUMP JUMPDEST PUSH2 0xACF DUP4 PUSH1 0x20 PUSH2 0xB9B JUMP JUMPDEST PUSH1 0x40 MLOAD PUSH1 0x20 ADD PUSH2 0xAE0 SWAP3 SWAP2 SWAP1 PUSH2 0x1209 JUMP JUMPDEST PUSH1 0x40 DUP1 MLOAD PUSH1 0x1F NOT DUP2 DUP5 SUB ADD DUP2 MSTORE SWAP1 DUP3 SWAP1 MSTORE PUSH3 0x461BCD PUSH1 0xE5 SHL DUP3 MSTORE PUSH2 0x4BE SWAP2 PUSH1 0x4 ADD PUSH2 0x12C1 JUMP JUMPDEST PUSH2 0xB10 DUP3 DUP3 PUSH2 0xD4D JUMP JUMPDEST PUSH1 0x0 DUP3 DUP2 MSTORE PUSH1 0x1 PUSH1 0x20 MSTORE PUSH1 0x40 SWAP1 KECCAK256 PUSH2 0x481 SWAP1 DUP3 PUSH2 0xDD2 JUMP JUMPDEST PUSH2 0xB32 DUP3 DUP3 PUSH2 0xDE7 JUMP JUMPDEST PUSH1 0x0 DUP3 DUP2 MSTORE PUSH1 0x1 PUSH1 0x20 MSTORE PUSH1 0x40 SWAP1 KECCAK256 PUSH2 0x481 SWAP1 DUP3 PUSH2 0xE6A JUMP JUMPDEST PUSH1 0x0 DUP2 DUP4 LT ISZERO PUSH2 0xB5A JUMPI DUP2 PUSH2 0x81C JUMP JUMPDEST POP SWAP1 SWAP2 SWAP1 POP JUMP JUMPDEST PUSH2 0x4D1 DUP3 DUP3 PUSH2 0xB06 JUMP JUMPDEST PUSH1 0x0 PUSH2 0x81C DUP4 DUP4 PUSH2 0xE7F JUMP JUMPDEST PUSH1 0x0 PUSH2 0x3E4 DUP3 PUSH2 0xEB7 JUMP JUMPDEST PUSH1 0x1 PUSH1 0x1 PUSH1 0xE0 SHL SUB NOT DUP2 AND PUSH4 0x1FFC9A7 PUSH1 0xE0 SHL EQ SWAP2 SWAP1 POP JUMP JUMPDEST PUSH1 0x60 PUSH1 0x0 PUSH2 0xBAA DUP4 PUSH1 0x2 PUSH2 0x13DD JUMP JUMPDEST PUSH2 0xBB5 SWAP1 PUSH1 0x2 PUSH2 0x13A5 JUMP JUMPDEST PUSH8 0xFFFFFFFFFFFFFFFF DUP2 GT ISZERO PUSH2 0xBDB JUMPI PUSH4 0x4E487B71 PUSH1 0xE0 SHL PUSH1 0x0 MSTORE PUSH1 0x41 PUSH1 0x4 MSTORE PUSH1 0x24 PUSH1 0x0 REVERT JUMPDEST PUSH1 0x40 MLOAD SWAP1 DUP1 DUP3 MSTORE DUP1 PUSH1 0x1F ADD PUSH1 0x1F NOT AND PUSH1 0x20 ADD DUP3 ADD PUSH1 0x40 MSTORE DUP1 ISZERO PUSH2 0xC05 JUMPI PUSH1 0x20 DUP3 ADD DUP2 DUP1 CALLDATASIZE DUP4 CALLDATACOPY ADD SWAP1 POP JUMPDEST POP SWAP1 POP PUSH1 0x3 PUSH1 0xFC SHL DUP2 PUSH1 0x0 DUP2 MLOAD DUP2 LT PUSH2 0xC2E JUMPI PUSH4 0x4E487B71 PUSH1 0xE0 SHL PUSH1 0x0 MSTORE PUSH1 0x32 PUSH1 0x4 MSTORE PUSH1 0x24 PUSH1 0x0 REVERT JUMPDEST PUSH1 0x20 ADD ADD SWAP1 PUSH1 0x1 PUSH1 0x1 PUSH1 0xF8 SHL SUB NOT AND SWAP1 DUP2 PUSH1 0x0 BYTE SWAP1 MSTORE8 POP PUSH1 0xF PUSH1 0xFB SHL DUP2 PUSH1 0x1 DUP2 MLOAD DUP2 LT PUSH2 0xC6B JUMPI PUSH4 0x4E487B71 PUSH1 0xE0 SHL PUSH1 0x0 MSTORE PUSH1 0x32 PUSH1 0x4 MSTORE PUSH1 0x24 PUSH1 0x0 REVERT JUMPDEST PUSH1 0x20 ADD ADD SWAP1 PUSH1 0x1 PUSH1 0x1 PUSH1 0xF8 SHL SUB NOT AND SWAP1 DUP2 PUSH1 0x0 BYTE SWAP1 MSTORE8 POP PUSH1 0x0 PUSH2 0xC8F DUP5 PUSH1 0x2 PUSH2 0x13DD JUMP JUMPDEST PUSH2 0xC9A SWAP1 PUSH1 0x1 PUSH2 0x13A5 JUMP JUMPDEST SWAP1 POP JUMPDEST PUSH1 0x1 DUP2 GT ISZERO PUSH2 0xD2E JUMPI PUSH16 0x181899199A1A9B1B9C1CB0B131B232B3 PUSH1 0x81 SHL DUP6 PUSH1 0xF AND PUSH1 0x10 DUP2 LT PUSH2 0xCDC JUMPI PUSH4 0x4E487B71 PUSH1 0xE0 SHL PUSH1 0x0 MSTORE PUSH1 0x32 PUSH1 0x4 MSTORE PUSH1 0x24 PUSH1 0x0 REVERT JUMPDEST BYTE PUSH1 0xF8 SHL DUP3 DUP3 DUP2 MLOAD DUP2 LT PUSH2 0xD00 JUMPI PUSH4 0x4E487B71 PUSH1 0xE0 SHL PUSH1 0x0 MSTORE PUSH1 0x32 PUSH1 0x4 MSTORE PUSH1 0x24 PUSH1 0x0 REVERT JUMPDEST PUSH1 0x20 ADD ADD SWAP1 PUSH1 0x1 PUSH1 0x1 PUSH1 0xF8 SHL SUB NOT AND SWAP1 DUP2 PUSH1 0x0 BYTE SWAP1 MSTORE8 POP PUSH1 0x4 SWAP5 SWAP1 SWAP5 SHR SWAP4 PUSH2 0xD27 DUP2 PUSH2 0x1443 JUMP JUMPDEST SWAP1 POP PUSH2 0xC9D JUMP JUMPDEST POP DUP4 ISZERO PUSH2 0x81C JUMPI PUSH1 0x40 MLOAD PUSH3 0x461BCD PUSH1 0xE5 SHL DUP2 MSTORE PUSH1 0x4 ADD PUSH2 0x4BE SWAP1 PUSH2 0x12F4 JUMP JUMPDEST PUSH2 0xD57 DUP3 DUP3 PUSH2 0x823 JUMP JUMPDEST PUSH2 0x4D1 JUMPI PUSH1 0x0 DUP3 DUP2 MSTORE PUSH1 0x20 DUP2 DUP2 MSTORE PUSH1 0x40 DUP1 DUP4 KECCAK256 PUSH1 0x1 PUSH1 0x1 PUSH1 0xA0 SHL SUB DUP6 AND DUP5 MSTORE SWAP1 SWAP2 MSTORE SWAP1 KECCAK256 DUP1 SLOAD PUSH1 0xFF NOT AND PUSH1 0x1 OR SWAP1 SSTORE PUSH2 0xD8E PUSH2 0xA9E JUMP JUMPDEST PUSH1 0x1 PUSH1 0x1 PUSH1 0xA0 SHL SUB AND DUP2 PUSH1 0x1 PUSH1 0x1 PUSH1 0xA0 SHL SUB AND DUP4 PUSH32 0x2F8788117E7EFF1D82E926EC794901D17C78024A50270940304540A733656F0D PUSH1 0x40 MLOAD PUSH1 0x40 MLOAD DUP1 SWAP2 SUB SWAP1 LOG4 POP POP JUMP JUMPDEST PUSH1 0x0 PUSH2 0x81C DUP4 PUSH1 0x1 PUSH1 0x1 PUSH1 0xA0 SHL SUB DUP5 AND PUSH2 0xEBB JUMP JUMPDEST PUSH2 0xDF1 DUP3 DUP3 PUSH2 0x823 JUMP JUMPDEST ISZERO PUSH2 0x4D1 JUMPI PUSH1 0x0 DUP3 DUP2 MSTORE PUSH1 0x20 DUP2 DUP2 MSTORE PUSH1 0x40 DUP1 DUP4 KECCAK256 PUSH1 0x1 PUSH1 0x1 PUSH1 0xA0 SHL SUB DUP6 AND DUP5 MSTORE SWAP1 SWAP2 MSTORE SWAP1 KECCAK256 DUP1 SLOAD PUSH1 0xFF NOT AND SWAP1 SSTORE PUSH2 0xE26 PUSH2 0xA9E JUMP JUMPDEST PUSH1 0x1 PUSH1 0x1 PUSH1 0xA0 SHL SUB AND DUP2 PUSH1 0x1 PUSH1 0x1 PUSH1 0xA0 SHL SUB AND DUP4 PUSH32 0xF6391F5C32D9C69D2A47EA670B442974B53935D1EDC7FD64EB21E047A839171B PUSH1 0x40 MLOAD PUSH1 0x40 MLOAD DUP1 SWAP2 SUB SWAP1 LOG4 POP POP JUMP JUMPDEST PUSH1 0x0 PUSH2 0x81C DUP4 PUSH1 0x1 PUSH1 0x1 PUSH1 0xA0 SHL SUB DUP5 AND PUSH2 0xF05 JUMP JUMPDEST PUSH1 0x0 DUP3 PUSH1 0x0 ADD DUP3 DUP2 SLOAD DUP2 LT PUSH2 0xEA4 JUMPI PUSH4 0x4E487B71 PUSH1 0xE0 SHL PUSH1 0x0 MSTORE PUSH1 0x32 PUSH1 0x4 MSTORE PUSH1 0x24 PUSH1 0x0 REVERT JUMPDEST SWAP1 PUSH1 0x0 MSTORE PUSH1 0x20 PUSH1 0x0 KECCAK256 ADD SLOAD SWAP1 POP SWAP3 SWAP2 POP POP JUMP JUMPDEST SLOAD SWAP1 JUMP JUMPDEST PUSH1 0x0 PUSH2 0xEC7 DUP4 DUP4 PUSH2 0x1022 JUMP JUMPDEST PUSH2 0xEFD JUMPI POP DUP2 SLOAD PUSH1 0x1 DUP2 DUP2 ADD DUP5 SSTORE PUSH1 0x0 DUP5 DUP2 MSTORE PUSH1 0x20 DUP1 DUP3 KECCAK256 SWAP1 SWAP4 ADD DUP5 SWAP1 SSTORE DUP5 SLOAD DUP5 DUP3 MSTORE DUP3 DUP7 ADD SWAP1 SWAP4 MSTORE PUSH1 0x40 SWAP1 KECCAK256 SWAP2 SWAP1 SWAP2 SSTORE PUSH2 0x3B9 JUMP JUMPDEST POP PUSH1 0x0 PUSH2 0x3B9 JUMP JUMPDEST PUSH1 0x0 DUP2 DUP2 MSTORE PUSH1 0x1 DUP4 ADD PUSH1 0x20 MSTORE PUSH1 0x40 DUP2 KECCAK256 SLOAD DUP1 ISZERO PUSH2 0x1018 JUMPI PUSH1 0x0 PUSH2 0xF29 PUSH1 0x1 DUP4 PUSH2 0x13FC JUMP JUMPDEST DUP6 SLOAD SWAP1 SWAP2 POP PUSH1 0x0 SWAP1 PUSH2 0xF3D SWAP1 PUSH1 0x1 SWAP1 PUSH2 0x13FC JUMP JUMPDEST SWAP1 POP DUP2 DUP2 EQ PUSH2 0xFBE JUMPI PUSH1 0x0 DUP7 PUSH1 0x0 ADD DUP3 DUP2 SLOAD DUP2 LT PUSH2 0xF6B JUMPI PUSH4 0x4E487B71 PUSH1 0xE0 SHL PUSH1 0x0 MSTORE PUSH1 0x32 PUSH1 0x4 MSTORE PUSH1 0x24 PUSH1 0x0 REVERT JUMPDEST SWAP1 PUSH1 0x0 MSTORE PUSH1 0x20 PUSH1 0x0 KECCAK256 ADD SLOAD SWAP1 POP DUP1 DUP8 PUSH1 0x0 ADD DUP5 DUP2 SLOAD DUP2 LT PUSH2 0xF9C JUMPI PUSH4 0x4E487B71 PUSH1 0xE0 SHL PUSH1 0x0 MSTORE PUSH1 0x32 PUSH1 0x4 MSTORE PUSH1 0x24 PUSH1 0x0 REVERT JUMPDEST PUSH1 0x0 SWAP2 DUP3 MSTORE PUSH1 0x20 DUP1 DUP4 KECCAK256 SWAP1 SWAP2 ADD SWAP3 SWAP1 SWAP3 SSTORE SWAP2 DUP3 MSTORE PUSH1 0x1 DUP9 ADD SWAP1 MSTORE PUSH1 0x40 SWAP1 KECCAK256 DUP4 SWAP1 SSTORE JUMPDEST DUP6 SLOAD DUP7 SWAP1 DUP1 PUSH2 0xFDD JUMPI PUSH4 0x4E487B71 PUSH1 0xE0 SHL PUSH1 0x0 MSTORE PUSH1 0x31 PUSH1 0x4 MSTORE PUSH1 0x24 PUSH1 0x0 REVERT JUMPDEST PUSH1 0x1 SWAP1 SUB DUP2 DUP2 SWAP1 PUSH1 0x0 MSTORE PUSH1 0x20 PUSH1 0x0 KECCAK256 ADD PUSH1 0x0 SWAP1 SSTORE SWAP1 SSTORE DUP6 PUSH1 0x1 ADD PUSH1 0x0 DUP7 DUP2 MSTORE PUSH1 0x20 ADD SWAP1 DUP2 MSTORE PUSH1 0x20 ADD PUSH1 0x0 KECCAK256 PUSH1 0x0 SWAP1 SSTORE PUSH1 0x1 SWAP4 POP POP POP POP PUSH2 0x3B9 JUMP JUMPDEST PUSH1 0x0 SWAP2 POP POP PUSH2 0x3B9 JUMP JUMPDEST PUSH1 0x0 SWAP1 DUP2 MSTORE PUSH1 0x1 SWAP2 SWAP1 SWAP2 ADD PUSH1 0x20 MSTORE PUSH1 0x40 SWAP1 KECCAK256 SLOAD ISZERO ISZERO SWAP1 JUMP JUMPDEST DUP1 CALLDATALOAD PUSH1 0x1 PUSH1 0x1 PUSH1 0xA0 SHL SUB DUP2 AND DUP2 EQ PUSH2 0x3E7 JUMPI PUSH1 0x0 DUP1 REVERT JUMPDEST DUP1 CALLDATALOAD DUP1 ISZERO ISZERO DUP2 EQ PUSH2 0x3E7 JUMPI PUSH1 0x0 DUP1 REVERT JUMPDEST DUP1 CALLDATALOAD PUSH1 0x1 PUSH1 0x1 PUSH1 0xE0 SHL SUB NOT DUP2 AND DUP2 EQ PUSH2 0x3E7 JUMPI PUSH1 0x0 DUP1 REVERT JUMPDEST PUSH1 0x0 DUP1 PUSH1 0x40 DUP4 DUP6 SUB SLT ISZERO PUSH2 0x108B JUMPI DUP2 DUP3 REVERT JUMPDEST PUSH2 0x1094 DUP4 PUSH2 0x103A JUMP JUMPDEST SWAP2 POP PUSH2 0x10A2 PUSH1 0x20 DUP5 ADD PUSH2 0x103A JUMP JUMPDEST SWAP1 POP SWAP3 POP SWAP3 SWAP1 POP JUMP JUMPDEST PUSH1 0x0 DUP1 PUSH1 0x0 PUSH1 0x60 DUP5 DUP7 SUB SLT ISZERO PUSH2 0x10BF JUMPI DUP1 DUP2 REVERT JUMPDEST PUSH2 0x10C8 DUP5 PUSH2 0x103A JUMP JUMPDEST SWAP3 POP PUSH2 0x10D6 PUSH1 0x20 DUP6 ADD PUSH2 0x103A JUMP JUMPDEST SWAP2 POP PUSH2 0x10E4 PUSH1 0x40 DUP6 ADD PUSH2 0x1051 JUMP JUMPDEST SWAP1 POP SWAP3 POP SWAP3 POP SWAP3 JUMP JUMPDEST PUSH1 0x0 DUP1 PUSH1 0x40 DUP4 DUP6 SUB SLT ISZERO PUSH2 0x10FF JUMPI DUP2 DUP3 REVERT JUMPDEST PUSH2 0x1108 DUP4 PUSH2 0x103A JUMP JUMPDEST SWAP5 PUSH1 0x20 SWAP4 SWAP1 SWAP4 ADD CALLDATALOAD SWAP4 POP POP POP JUMP JUMPDEST PUSH1 0x0 DUP1 PUSH1 0x40 DUP4 DUP6 SUB SLT ISZERO PUSH2 0x1128 JUMPI DUP2 DUP3 REVERT JUMPDEST PUSH2 0x1131 DUP4 PUSH2 0x103A JUMP JUMPDEST SWAP2 POP PUSH2 0x10A2 PUSH1 0x20 DUP5 ADD PUSH2 0x1061 JUMP JUMPDEST PUSH1 0x0 PUSH1 0x20 DUP3 DUP5 SUB SLT ISZERO PUSH2 0x1150 JUMPI DUP1 DUP2 REVERT JUMPDEST POP CALLDATALOAD SWAP2 SWAP1 POP JUMP JUMPDEST PUSH1 0x0 DUP1 PUSH1 0x40 DUP4 DUP6 SUB SLT ISZERO PUSH2 0x1169 JUMPI DUP2 DUP3 REVERT JUMPDEST DUP3 CALLDATALOAD SWAP2 POP PUSH2 0x10A2 PUSH1 0x20 DUP5 ADD PUSH2 0x103A JUMP JUMPDEST PUSH1 0x0 DUP1 PUSH1 0x40 DUP4 DUP6 SUB SLT ISZERO PUSH2 0x118B JUMPI DUP2 DUP3 REVERT JUMPDEST DUP3 CALLDATALOAD SWAP2 POP PUSH2 0x10A2 PUSH1 0x20 DUP5 ADD PUSH2 0x1051 JUMP JUMPDEST PUSH1 0x0 DUP1 PUSH1 0x40 DUP4 DUP6 SUB SLT ISZERO PUSH2 0x11AD JUMPI DUP2 DUP3 REVERT JUMPDEST POP POP DUP1 CALLDATALOAD SWAP3 PUSH1 0x20 SWAP1 SWAP2 ADD CALLDATALOAD SWAP2 POP JUMP JUMPDEST PUSH1 0x0 PUSH1 0x20 DUP3 DUP5 SUB SLT ISZERO PUSH2 0x11CD JUMPI DUP1 DUP2 REVERT JUMPDEST PUSH2 0x81C DUP3 PUSH2 0x1061 JUMP JUMPDEST PUSH1 0x0 DUP1 PUSH1 0x40 DUP4 DUP6 SUB SLT ISZERO PUSH2 0x11E8 JUMPI DUP2 DUP3 REVERT JUMPDEST PUSH2 0x1094 DUP4 PUSH2 0x1061 JUMP JUMPDEST PUSH1 0x0 PUSH1 0x20 DUP3 DUP5 SUB SLT ISZERO PUSH2 0x1202 JUMPI DUP1 DUP2 REVERT JUMPDEST POP MLOAD SWAP2 SWAP1 POP JUMP JUMPDEST PUSH1 0x0 PUSH32 0x416363657373436F6E74726F6C3A206163636F756E7420000000000000000000 DUP3 MSTORE DUP4 MLOAD PUSH2 0x1241 DUP2 PUSH1 0x17 DUP6 ADD PUSH1 0x20 DUP9 ADD PUSH2 0x1413 JUMP JUMPDEST PUSH17 0x1034B99036B4B9B9B4B733903937B6329 PUSH1 0x7D SHL PUSH1 0x17 SWAP2 DUP5 ADD SWAP2 DUP3 ADD MSTORE DUP4 MLOAD PUSH2 0x1272 DUP2 PUSH1 0x28 DUP5 ADD PUSH1 0x20 DUP9 ADD PUSH2 0x1413 JUMP JUMPDEST ADD PUSH1 0x28 ADD SWAP5 SWAP4 POP POP POP POP JUMP JUMPDEST PUSH1 0x1 PUSH1 0x1 PUSH1 0xA0 SHL SUB SWAP2 SWAP1 SWAP2 AND DUP2 MSTORE PUSH1 0x20 ADD SWAP1 JUMP JUMPDEST PUSH1 0x1 PUSH1 0x1 PUSH1 0xA0 SHL SUB SWAP3 SWAP1 SWAP3 AND DUP3 MSTORE ISZERO ISZERO PUSH1 0x20 DUP3 ADD MSTORE PUSH1 0x40 ADD SWAP1 JUMP JUMPDEST SWAP1 ISZERO ISZERO DUP2 MSTORE PUSH1 0x20 ADD SWAP1 JUMP JUMPDEST SWAP1 DUP2 MSTORE PUSH1 0x20 ADD SWAP1 JUMP JUMPDEST PUSH1 0x0 PUSH1 0x20 DUP3 MSTORE DUP3 MLOAD DUP1 PUSH1 0x20 DUP5 ADD MSTORE PUSH2 0x12E0 DUP2 PUSH1 0x40 DUP6 ADD PUSH1 0x20 DUP8 ADD PUSH2 0x1413 JUMP JUMPDEST PUSH1 0x1F ADD PUSH1 0x1F NOT AND SWAP2 SWAP1 SWAP2 ADD PUSH1 0x40 ADD SWAP3 SWAP2 POP POP JUMP JUMPDEST PUSH1 0x20 DUP1 DUP3 MSTORE DUP2 DUP2 ADD MSTORE PUSH32 0x537472696E67733A20686578206C656E67746820696E73756666696369656E74 PUSH1 0x40 DUP3 ADD MSTORE PUSH1 0x60 ADD SWAP1 JUMP JUMPDEST PUSH1 0x20 DUP1 DUP3 MSTORE PUSH1 0x13 SWAP1 DUP3 ADD MSTORE PUSH19 0x185B1C9958591E4B5A5B9A5D1A585B1A5E9959 PUSH1 0x6A SHL PUSH1 0x40 DUP3 ADD MSTORE PUSH1 0x60 ADD SWAP1 JUMP JUMPDEST PUSH1 0x20 DUP1 DUP3 MSTORE PUSH1 0x2F SWAP1 DUP3 ADD MSTORE PUSH32 0x416363657373436F6E74726F6C3A2063616E206F6E6C792072656E6F756E6365 PUSH1 0x40 DUP3 ADD MSTORE PUSH15 0x103937B632B9903337B91039B2B633 PUSH1 0x89 SHL PUSH1 0x60 DUP3 ADD MSTORE PUSH1 0x80 ADD SWAP1 JUMP JUMPDEST PUSH1 0x0 DUP3 NOT DUP3 GT ISZERO PUSH2 0x13B8 JUMPI PUSH2 0x13B8 PUSH2 0x145A JUMP JUMPDEST POP ADD SWAP1 JUMP JUMPDEST PUSH1 0x0 DUP3 PUSH2 0x13D8 JUMPI PUSH4 0x4E487B71 PUSH1 0xE0 SHL DUP2 MSTORE PUSH1 0x12 PUSH1 0x4 MSTORE PUSH1 0x24 DUP2 REVERT JUMPDEST POP DIV SWAP1 JUMP JUMPDEST PUSH1 0x0 DUP2 PUSH1 0x0 NOT DIV DUP4 GT DUP3 ISZERO ISZERO AND ISZERO PUSH2 0x13F7 JUMPI PUSH2 0x13F7 PUSH2 0x145A JUMP JUMPDEST POP MUL SWAP1 JUMP JUMPDEST PUSH1 0x0 DUP3 DUP3 LT ISZERO PUSH2 0x140E JUMPI PUSH2 0x140E PUSH2 0x145A JUMP JUMPDEST POP SUB SWAP1 JUMP JUMPDEST PUSH1 0x0 JUMPDEST DUP4 DUP2 LT ISZERO PUSH2 0x142E JUMPI DUP2 DUP2 ADD MLOAD DUP4 DUP3 ADD MSTORE PUSH1 0x20 ADD PUSH2 0x1416 JUMP JUMPDEST DUP4 DUP2 GT ISZERO PUSH2 0x143D JUMPI PUSH1 0x0 DUP5 DUP5 ADD MSTORE JUMPDEST POP POP POP POP JUMP JUMPDEST PUSH1 0x0 DUP2 PUSH2 0x1452 JUMPI PUSH2 0x1452 PUSH2 0x145A JUMP JUMPDEST POP PUSH1 0x0 NOT ADD SWAP1 JUMP JUMPDEST PUSH4 0x4E487B71 PUSH1 0xE0 SHL PUSH1 0x0 MSTORE PUSH1 0x11 PUSH1 0x4 MSTORE PUSH1 0x24 PUSH1 0x0 REVERT INVALID LOG2 PUSH5 0x6970667358 0x22 SLT KECCAK256 LOG4 0xC9 0xC0 DUP12 0xE1 0xB8 ADDRESS PUSH17 0xD012E6880A545A7EF854D05B9611DF21B7 TIMESTAMP 0x27 PUSH22 0xCBA13ED764736F6C6343000801003300000000000000 "
        },
        "methodIdentifiers": {
          "AUTHORIZATION_RATIO()": "3b863f96",
          "DEFAULT_ADMIN_ROLE()": "a217fddf",
          "GLOBAL_CONFIG()": "afc172b9",
          "MODULE_ROLE()": "a6b520c0",
          "disableModuleForWallet(address,address,bool)": "7a92553e",
          "getConfig(address,bytes32)": "01faf36c",
          "getGlobalOnlyKey(bytes32)": "b61f53c7",
          "getModule(address,bytes4)": "a9d62ca4",
          "getNiftexWallet()": "0927d604",
          "getRoleAdmin(bytes32)": "248a9ca3",
          "getRoleMember(bytes32,uint256)": "9010d07c",
          "getRoleMemberCount(bytes32)": "ca15c873",
          "grantRole(bytes32,address)": "2f2ff15d",
          "hasRole(bytes32,address)": "91d14854",
          "initialize()": "8129fc1c",
          "isAuthorized(address,address)": "65e4ad9e",
          "isModule(address,address)": "edcad282",
          "renounceRole(bytes32,address)": "36568abe",
          "revokeRole(bytes32,address)": "d547741f",
          "setConfig(bytes32,uint256)": "15fe96dc",
          "setGlobalConfig(bytes32,uint256)": "77073983",
          "setGlobalKey(bytes32,bool)": "dd0691fa",
          "setGlobalModule(bytes4,address)": "6c9cd4a5",
          "setModule(bytes4,address)": "bf1eeb6b",
          "supportsInterface(bytes4)": "01ffc9a7"
        }
      }
    }
  }
}