{
  "_format": "hh-sol-artifact-1",
  "contractName": "Governance2",
  "sourceName": "contracts/Governance2.sol",
  "abi": [
    {
      "anonymous": false,
      "inputs": [
        {
          "indexed": true,
          "internalType": "bytes32",
          "name": "key",
          "type": "bytes32"
        },
        {
          "indexed": true,
          "internalType": "uint256",
          "name": "value",
          "type": "uint256"
        },
        {
          "indexed": true,
          "internalType": "address",
          "name": "wallet",
          "type": "address"
        }
      ],
      "name": "ConfigSet",
      "type": "event"
    },
    {
      "anonymous": false,
      "inputs": [
        {
          "indexed": true,
          "internalType": "bytes32",
          "name": "key",
          "type": "bytes32"
        },
        {
          "indexed": true,
          "internalType": "uint256",
          "name": "value",
          "type": "uint256"
        }
      ],
      "name": "GlobalConfigSet",
      "type": "event"
    },
    {
      "anonymous": false,
      "inputs": [
        {
          "indexed": true,
          "internalType": "bytes32",
          "name": "key",
          "type": "bytes32"
        },
        {
          "indexed": true,
          "internalType": "bool",
          "name": "value",
          "type": "bool"
        }
      ],
      "name": "GlobalKeySet",
      "type": "event"
    },
    {
      "anonymous": false,
      "inputs": [
        {
          "indexed": true,
          "internalType": "bytes4",
          "name": "sig",
          "type": "bytes4"
        },
        {
          "indexed": true,
          "internalType": "address",
          "name": "value",
          "type": "address"
        }
      ],
      "name": "GlobalModuleSet",
      "type": "event"
    },
    {
      "anonymous": false,
      "inputs": [
        {
          "indexed": false,
          "internalType": "address",
          "name": "wallet",
          "type": "address"
        },
        {
          "indexed": true,
          "internalType": "address",
          "name": "module",
          "type": "address"
        },
        {
          "indexed": false,
          "internalType": "bool",
          "name": "disabled",
          "type": "bool"
        }
      ],
      "name": "ModuleDisabled",
      "type": "event"
    },
    {
      "anonymous": false,
      "inputs": [
        {
          "indexed": true,
          "internalType": "bytes4",
          "name": "sig",
          "type": "bytes4"
        },
        {
          "indexed": true,
          "internalType": "address",
          "name": "value",
          "type": "address"
        },
        {
          "indexed": true,
          "internalType": "address",
          "name": "wallet",
          "type": "address"
        }
      ],
      "name": "ModuleSet",
      "type": "event"
    },
    {
      "anonymous": false,
      "inputs": [
        {
          "indexed": true,
          "internalType": "bytes32",
          "name": "role",
          "type": "bytes32"
        },
        {
          "indexed": true,
          "internalType": "bytes32",
          "name": "previousAdminRole",
          "type": "bytes32"
        },
        {
          "indexed": true,
          "internalType": "bytes32",
          "name": "newAdminRole",
          "type": "bytes32"
        }
      ],
      "name": "RoleAdminChanged",
      "type": "event"
    },
    {
      "anonymous": false,
      "inputs": [
        {
          "indexed": true,
          "internalType": "bytes32",
          "name": "role",
          "type": "bytes32"
        },
        {
          "indexed": true,
          "internalType": "address",
          "name": "account",
          "type": "address"
        },
        {
          "indexed": true,
          "internalType": "address",
          "name": "sender",
          "type": "address"
        }
      ],
      "name": "RoleGranted",
      "type": "event"
    },
    {
      "anonymous": false,
      "inputs": [
        {
          "indexed": true,
          "internalType": "bytes32",
          "name": "role",
          "type": "bytes32"
        },
        {
          "indexed": true,
          "internalType": "address",
          "name": "account",
          "type": "address"
        },
        {
          "indexed": true,
          "internalType": "address",
          "name": "sender",
          "type": "address"
        }
      ],
      "name": "RoleRevoked",
      "type": "event"
    },
    {
      "inputs": [],
      "name": "AUTHORIZATION_RATIO",
      "outputs": [
        {
          "internalType": "bytes32",
          "name": "",
          "type": "bytes32"
        }
      ],
      "stateMutability": "view",
      "type": "function"
    },
    {
      "inputs": [],
      "name": "DEFAULT_ADMIN_ROLE",
      "outputs": [
        {
          "internalType": "bytes32",
          "name": "",
          "type": "bytes32"
        }
      ],
      "stateMutability": "view",
      "type": "function"
    },
    {
      "inputs": [],
      "name": "GLOBAL_CONFIG",
      "outputs": [
        {
          "internalType": "address",
          "name": "",
          "type": "address"
        }
      ],
      "stateMutability": "view",
      "type": "function"
    },
    {
      "inputs": [],
      "name": "MODULE_ROLE",
      "outputs": [
        {
          "internalType": "bytes32",
          "name": "",
          "type": "bytes32"
        }
      ],
      "stateMutability": "view",
      "type": "function"
    },
    {
      "inputs": [
        {
          "internalType": "address",
          "name": "wallet",
          "type": "address"
        },
        {
          "internalType": "address",
          "name": "module",
          "type": "address"
        },
        {
          "internalType": "bool",
          "name": "disabled",
          "type": "bool"
        }
      ],
      "name": "disableModuleForWallet",
      "outputs": [],
      "stateMutability": "nonpayable",
      "type": "function"
    },
    {
      "inputs": [
        {
          "internalType": "address",
          "name": "wallet",
          "type": "address"
        },
        {
          "internalType": "bytes32",
          "name": "key",
          "type": "bytes32"
        }
      ],
      "name": "getConfig",
      "outputs": [
        {
          "internalType": "uint256",
          "name": "",
          "type": "uint256"
        }
      ],
      "stateMutability": "view",
      "type": "function"
    },
    {
      "inputs": [
        {
          "internalType": "bytes32",
          "name": "key",
          "type": "bytes32"
        }
      ],
      "name": "getGlobalOnlyKey",
      "outputs": [
        {
          "internalType": "bool",
          "name": "",
          "type": "bool"
        }
      ],
      "stateMutability": "view",
      "type": "function"
    },
    {
      "inputs": [
        {
          "internalType": "address",
          "name": "wallet",
          "type": "address"
        },
        {
          "internalType": "bytes4",
          "name": "sig",
          "type": "bytes4"
        }
      ],
      "name": "getModule",
      "outputs": [
        {
          "internalType": "address",
          "name": "",
          "type": "address"
        }
      ],
      "stateMutability": "view",
      "type": "function"
    },
    {
      "inputs": [],
      "name": "getNiftexWallet",
      "outputs": [
        {
          "internalType": "address",
          "name": "",
          "type": "address"
        }
      ],
      "stateMutability": "view",
      "type": "function"
    },
    {
      "inputs": [
        {
          "internalType": "bytes32",
          "name": "role",
          "type": "bytes32"
        }
      ],
      "name": "getRoleAdmin",
      "outputs": [
        {
          "internalType": "bytes32",
          "name": "",
          "type": "bytes32"
        }
      ],
      "stateMutability": "view",
      "type": "function"
    },
    {
      "inputs": [
        {
          "internalType": "bytes32",
          "name": "role",
          "type": "bytes32"
        },
        {
          "internalType": "uint256",
          "name": "index",
          "type": "uint256"
        }
      ],
      "name": "getRoleMember",
      "outputs": [
        {
          "internalType": "address",
          "name": "",
          "type": "address"
        }
      ],
      "stateMutability": "view",
      "type": "function"
    },
    {
      "inputs": [
        {
          "internalType": "bytes32",
          "name": "role",
          "type": "bytes32"
        }
      ],
      "name": "getRoleMemberCount",
      "outputs": [
        {
          "internalType": "uint256",
          "name": "",
          "type": "uint256"
        }
      ],
      "stateMutability": "view",
      "type": "function"
    },
    {
      "inputs": [
        {
          "internalType": "bytes32",
          "name": "role",
          "type": "bytes32"
        },
        {
          "internalType": "address",
          "name": "account",
          "type": "address"
        }
      ],
      "name": "grantRole",
      "outputs": [],
      "stateMutability": "nonpayable",
      "type": "function"
    },
    {
      "inputs": [
        {
          "internalType": "bytes32",
          "name": "role",
          "type": "bytes32"
        },
        {
          "internalType": "address",
          "name": "account",
          "type": "address"
        }
      ],
      "name": "hasRole",
      "outputs": [
        {
          "internalType": "bool",
          "name": "",
          "type": "bool"
        }
      ],
      "stateMutability": "view",
      "type": "function"
    },
    {
      "inputs": [],
      "name": "initialize",
      "outputs": [],
      "stateMutability": "nonpayable",
      "type": "function"
    },
    {
      "inputs": [
        {
          "internalType": "address",
          "name": "wallet",
          "type": "address"
        },
        {
          "internalType": "address",
          "name": "user",
          "type": "address"
        }
      ],
      "name": "isAuthorized",
      "outputs": [
        {
          "internalType": "bool",
          "name": "",
          "type": "bool"
        }
      ],
      "stateMutability": "view",
      "type": "function"
    },
    {
      "inputs": [
        {
          "internalType": "address",
          "name": "wallet",
          "type": "address"
        },
        {
          "internalType": "address",
          "name": "module",
          "type": "address"
        }
      ],
      "name": "isModule",
      "outputs": [
        {
          "internalType": "bool",
          "name": "",
          "type": "bool"
        }
      ],
      "stateMutability": "view",
      "type": "function"
    },
    {
      "inputs": [
        {
          "internalType": "bytes32",
          "name": "role",
          "type": "bytes32"
        },
        {
          "internalType": "address",
          "name": "account",
          "type": "address"
        }
      ],
      "name": "renounceRole",
      "outputs": [],
      "stateMutability": "nonpayable",
      "type": "function"
    },
    {
      "inputs": [
        {
          "internalType": "bytes32",
          "name": "role",
          "type": "bytes32"
        },
        {
          "internalType": "address",
          "name": "account",
          "type": "address"
        }
      ],
      "name": "revokeRole",
      "outputs": [],
      "stateMutability": "nonpayable",
      "type": "function"
    },
    {
      "inputs": [
        {
          "internalType": "bytes32",
          "name": "key",
          "type": "bytes32"
        },
        {
          "internalType": "uint256",
          "name": "value",
          "type": "uint256"
        }
      ],
      "name": "setConfig",
      "outputs": [],
      "stateMutability": "nonpayable",
      "type": "function"
    },
    {
      "inputs": [
        {
          "internalType": "bytes32",
          "name": "key",
          "type": "bytes32"
        },
        {
          "internalType": "uint256",
          "name": "value",
          "type": "uint256"
        }
      ],
      "name": "setGlobalConfig",
      "outputs": [],
      "stateMutability": "nonpayable",
      "type": "function"
    },
    {
      "inputs": [
        {
          "internalType": "bytes32",
          "name": "key",
          "type": "bytes32"
        },
        {
          "internalType": "bool",
          "name": "value",
          "type": "bool"
        }
      ],
      "name": "setGlobalKey",
      "outputs": [],
      "stateMutability": "nonpayable",
      "type": "function"
    },
    {
      "inputs": [
        {
          "internalType": "bytes4",
          "name": "sig",
          "type": "bytes4"
        },
        {
          "internalType": "address",
          "name": "value",
          "type": "address"
        }
      ],
      "name": "setGlobalModule",
      "outputs": [],
      "stateMutability": "nonpayable",
      "type": "function"
    },
    {
      "inputs": [
        {
          "internalType": "bytes4",
          "name": "sig",
          "type": "bytes4"
        },
        {
          "internalType": "address",
          "name": "value",
          "type": "address"
        }
      ],
      "name": "setModule",
      "outputs": [],
      "stateMutability": "nonpayable",
      "type": "function"
    },
    {
      "inputs": [
        {
          "internalType": "bytes4",
          "name": "interfaceId",
          "type": "bytes4"
        }
      ],
      "name": "supportsInterface",
      "outputs": [
        {
          "internalType": "bool",
          "name": "",
          "type": "bool"
        }
      ],
      "stateMutability": "view",
      "type": "function"
    }
  ],
  "bytecode": "0x608060405234801561001057600080fd5b506114a6806100206000396000f3fe608060405234801561001057600080fd5b50600436106101735760003560e01c80638129fc1c116100de578063afc172b911610097578063ca15c87311610071578063ca15c873146102f7578063d547741f1461030a578063dd0691fa1461031d578063edcad2821461033057610173565b8063afc172b9146102c9578063b61f53c7146102d1578063bf1eeb6b146102e457610173565b80638129fc1c146102785780639010d07c1461028057806391d1485414610293578063a217fddf146102a6578063a6b520c0146102ae578063a9d62ca4146102b657610173565b806336568abe1161013057806336568abe146102115780633b863f961461022457806365e4ad9e1461022c5780636c9cd4a51461023f57806377073983146102525780637a92553e1461026557610173565b806301faf36c1461017857806301ffc9a7146101a15780630927d604146101c157806315fe96dc146101d6578063248a9ca3146101eb5780632f2ff15d146101fe575b600080fd5b61018b6101863660046110ed565b610343565b60405161019891906112b8565b60405180910390f35b6101b46101af3660046111bc565b6103bf565b60405161019891906112ad565b6101c96103ec565b604051610198919061127e565b6101e96101e436600461119b565b6103fd565b005b61018b6101f936600461113f565b610448565b6101e961020c366004611157565b61045d565b6101e961021f366004611157565b610486565b61018b6104d5565b6101b461023a366004611079565b6104f9565b6101e961024d3660046111d6565b610642565b6101e961026036600461119b565b6106d7565b6101e96102733660046110ab565b610749565b6101e96107d0565b6101c961028e36600461119b565b610804565b6101b46102a1366004611157565b610823565b61018b61084c565b61018b610851565b6101c96102c4366004611116565b610875565b6101c961084c565b6101b46102df36600461113f565b6108ff565b6101e96102f23660046111d6565b610914565b61018b61030536600461113f565b610980565b6101e9610318366004611157565b610997565b6101e961032b366004611179565b6109b6565b6101b461033e366004611079565b610a16565b60008181527fac33ff75c19e70fe83507db0d683fd3465c996598dc972688b7ace676c89077b60209081526040808320546001600160a01b03861684526002835281842085855283528184205460059093529083205490919060ff16806103a8575080155b6103b257806103b4565b815b925050505b92915050565b60006001600160e01b03198216635a05180f60e01b14806103e457506103e482610a79565b90505b919050565b60006103f88180610804565b905090565b33600081815260026020908152604080832086845290915280822084905551839185917fd106312fdacf4b15754f725de8bebd90459e2368fd9c149553f0fe8d51a156ee9190a45050565b60009081526020819052604090206001015490565b61046682610448565b61047781610472610a9e565b610aa2565b6104818383610b06565b505050565b61048e610a9e565b6001600160a01b0316816001600160a01b0316146104c75760405162461bcd60e51b81526004016104be90611356565b60405180910390fd5b6104d18282610b28565b5050565b7f9f280153bc61a10b7af5e9374ead4471b587c3bdcab2b4ab6bdd38136e8544a181565b60006105bd670de0b6b3a7640000610531857f9f280153bc61a10b7af5e9374ead4471b587c3bdcab2b4ab6bdd38136e8544a1610343565b856001600160a01b03166318160ddd6040518163ffffffff1660e01b815260040160206040518083038186803b15801561056a57600080fd5b505afa15801561057e573d6000803e3d6000fd5b505050506040513d601f19601f820116820180604052508101906105a291906111f1565b6105ac91906113dd565b6105b691906113bd565b6001610b4a565b6040516370a0823160e01b81526001600160a01b038516906370a08231906105e990869060040161127e565b60206040518083038186803b15801561060157600080fd5b505afa158015610615573d6000803e3d6000fd5b505050506040513d601f19601f8201168201806040525081019061063991906111f1565b10159392505050565b61064d600033610823565b61065657600080fd5b6001600160e01b0319821660008181527f17ef568e3e12ab5b9c7254a8d58478811de00f9e6eb34345acd53bf8fd09d3ec602052604080822080546001600160a01b0319166001600160a01b03861690811790915590519092917fcd24af604e2c68e134dcda2b7ef7a55abe49359da9727a06c88d1ec369970e4c91a35050565b6106e2600033610823565b6106eb57600080fd5b60008281527fac33ff75c19e70fe83507db0d683fd3465c996598dc972688b7ace676c89077b602052604080822083905551829184917fcf1014faee467aa6f3af7c21539d04bb0b136fc7b46ca487395109cc9ae09b3d9190a35050565b610754600033610823565b61075d57600080fd5b6001600160a01b0383811660009081526003602090815260408083209386168084529390915290819020805460ff1916841515179055517f93c44b545e736937c6bc924dafefba7eae3ec0eff6daadf984af913876ca4258906107c39086908590611292565b60405180910390a2505050565b6107da6000610980565b156107f75760405162461bcd60e51b81526004016104be90611329565b610802600033610b61565b565b600082815260016020526040812061081c9083610b6b565b9392505050565b6000918252602082815260408084206001600160a01b0393909316845291905290205460ff1690565b600081565b7f5098275140f5753db46c42f6e139939968848633a1298402189fdfdafa69b45281565b6001600160e01b0319811660008181527f17ef568e3e12ab5b9c7254a8d58478811de00f9e6eb34345acd53bf8fd09d3ec60209081526040808320546001600160a01b038781168552600484528285209585529483528184205460059093529083205492939081169291169060ff16806103a857506001600160a01b038116156103b257806103b4565b60009081526005602052604090205460ff1690565b3360008181526004602090815260408083206001600160e01b03198716808552925280832080546001600160a01b0319166001600160a01b038716908117909155905190927f47147d51a586156cea67ea7933d8c746428be1ee60851352ed3678f30ed3b5b691a45050565b60008181526001602052604081206103e490610b77565b6109a082610448565b6109ac81610472610a9e565b6104818383610b28565b6109c1600033610823565b6109ca57600080fd5b600082815260056020526040808220805460ff19168415159081179091559051909184917f988c8730259020f85ba16fedfdd49bf63c978f5fe5e452bc841be9486c3ec49e9190a35050565b6000610a427f5098275140f5753db46c42f6e139939968848633a1298402189fdfdafa69b45283610823565b801561081c5750506001600160a01b03918216600090815260036020908152604080832093909416825291909152205460ff161590565b60006001600160e01b03198216637965db0b60e01b14806103e457506103e482610b82565b3390565b610aac8282610823565b6104d157610ac4816001600160a01b03166014610b9b565b610acf836020610b9b565b604051602001610ae0929190611209565b60408051601f198184030181529082905262461bcd60e51b82526104be916004016112c1565b610b108282610d4d565b60008281526001602052604090206104819082610dd2565b610b328282610de7565b60008281526001602052604090206104819082610e6a565b600081831015610b5a578161081c565b5090919050565b6104d18282610b06565b600061081c8383610e7f565b60006103e482610eb7565b6001600160e01b031981166301ffc9a760e01b14919050565b60606000610baa8360026113dd565b610bb59060026113a5565b67ffffffffffffffff811115610bdb57634e487b7160e01b600052604160045260246000fd5b6040519080825280601f01601f191660200182016040528015610c05576020820181803683370190505b509050600360fc1b81600081518110610c2e57634e487b7160e01b600052603260045260246000fd5b60200101906001600160f81b031916908160001a905350600f60fb1b81600181518110610c6b57634e487b7160e01b600052603260045260246000fd5b60200101906001600160f81b031916908160001a9053506000610c8f8460026113dd565b610c9a9060016113a5565b90505b6001811115610d2e576f181899199a1a9b1b9c1cb0b131b232b360811b85600f1660108110610cdc57634e487b7160e01b600052603260045260246000fd5b1a60f81b828281518110610d0057634e487b7160e01b600052603260045260246000fd5b60200101906001600160f81b031916908160001a90535060049490941c93610d2781611443565b9050610c9d565b50831561081c5760405162461bcd60e51b81526004016104be906112f4565b610d578282610823565b6104d1576000828152602081815260408083206001600160a01b03851684529091529020805460ff19166001179055610d8e610a9e565b6001600160a01b0316816001600160a01b0316837f2f8788117e7eff1d82e926ec794901d17c78024a50270940304540a733656f0d60405160405180910390a45050565b600061081c836001600160a01b038416610ebb565b610df18282610823565b156104d1576000828152602081815260408083206001600160a01b03851684529091529020805460ff19169055610e26610a9e565b6001600160a01b0316816001600160a01b0316837ff6391f5c32d9c69d2a47ea670b442974b53935d1edc7fd64eb21e047a839171b60405160405180910390a45050565b600061081c836001600160a01b038416610f05565b6000826000018281548110610ea457634e487b7160e01b600052603260045260246000fd5b9060005260206000200154905092915050565b5490565b6000610ec78383611022565b610efd575081546001818101845560008481526020808220909301849055845484825282860190935260409020919091556103b9565b5060006103b9565b60008181526001830160205260408120548015611018576000610f296001836113fc565b8554909150600090610f3d906001906113fc565b9050818114610fbe576000866000018281548110610f6b57634e487b7160e01b600052603260045260246000fd5b9060005260206000200154905080876000018481548110610f9c57634e487b7160e01b600052603260045260246000fd5b6000918252602080832090910192909255918252600188019052604090208390555b8554869080610fdd57634e487b7160e01b600052603160045260246000fd5b6001900381819060005260206000200160009055905585600101600086815260200190815260200160002060009055600193505050506103b9565b60009150506103b9565b60009081526001919091016020526040902054151590565b80356001600160a01b03811681146103e757600080fd5b803580151581146103e757600080fd5b80356001600160e01b0319811681146103e757600080fd5b6000806040838503121561108b578182fd5b6110948361103a565b91506110a26020840161103a565b90509250929050565b6000806000606084860312156110bf578081fd5b6110c88461103a565b92506110d66020850161103a565b91506110e460408501611051565b90509250925092565b600080604083850312156110ff578182fd5b6111088361103a565b946020939093013593505050565b60008060408385031215611128578182fd5b6111318361103a565b91506110a260208401611061565b600060208284031215611150578081fd5b5035919050565b60008060408385031215611169578182fd5b823591506110a26020840161103a565b6000806040838503121561118b578182fd5b823591506110a260208401611051565b600080604083850312156111ad578182fd5b50508035926020909101359150565b6000602082840312156111cd578081fd5b61081c82611061565b600080604083850312156111e8578182fd5b61109483611061565b600060208284031215611202578081fd5b5051919050565b60007f416363657373436f6e74726f6c3a206163636f756e742000000000000000000082528351611241816017850160208801611413565b7001034b99036b4b9b9b4b733903937b6329607d1b6017918401918201528351611272816028840160208801611413565b01602801949350505050565b6001600160a01b0391909116815260200190565b6001600160a01b039290921682521515602082015260400190565b901515815260200190565b90815260200190565b60006020825282518060208401526112e0816040850160208701611413565b601f01601f19169190910160400192915050565b6020808252818101527f537472696e67733a20686578206c656e67746820696e73756666696369656e74604082015260600190565b602080825260139082015272185b1c9958591e4b5a5b9a5d1a585b1a5e9959606a1b604082015260600190565b6020808252602f908201527f416363657373436f6e74726f6c3a2063616e206f6e6c792072656e6f756e636560408201526e103937b632b9903337b91039b2b63360891b606082015260800190565b600082198211156113b8576113b861145a565b500190565b6000826113d857634e487b7160e01b81526012600452602481fd5b500490565b60008160001904831182151516156113f7576113f761145a565b500290565b60008282101561140e5761140e61145a565b500390565b60005b8381101561142e578181015183820152602001611416565b8381111561143d576000848401525b50505050565b6000816114525761145261145a565b506000190190565b634e487b7160e01b600052601160045260246000fdfea2646970667358221220a4c9c08be1b83070d012e6880a545a7ef854d05b9611df21b7422775cba13ed764736f6c63430008010033",
  "linkReferences": {},
  "deployedLinkReferences": {}
}