{
  "_format": "hh-sol-artifact-1",
  "contractName": "ShardedWallet",
  "sourceName": "contracts/ShardedWallet.sol",
  "abi": [
    {
      "inputs": [],
      "stateMutability": "nonpayable",
      "type": "constructor"
    },
    {
      "anonymous": false,
      "inputs": [
        {
          "indexed": true,
          "internalType": "address",
          "name": "owner",
          "type": "address"
        },
        {
          "indexed": true,
          "internalType": "address",
          "name": "spender",
          "type": "address"
        },
        {
          "indexed": false,
          "internalType": "uint256",
          "name": "value",
          "type": "uint256"
        }
      ],
      "name": "Approval",
      "type": "event"
    },
    {
      "anonymous": false,
      "inputs": [
        {
          "indexed": true,
          "internalType": "address",
          "name": "oldArtist",
          "type": "address"
        },
        {
          "indexed": true,
          "internalType": "address",
          "name": "newArtist",
          "type": "address"
        }
      ],
      "name": "ArtistUpdated",
      "type": "event"
    },
    {
      "anonymous": false,
      "inputs": [
        {
          "indexed": true,
          "internalType": "address",
          "name": "to",
          "type": "address"
        },
        {
          "indexed": false,
          "internalType": "uint256",
          "name": "value",
          "type": "uint256"
        },
        {
          "indexed": false,
          "internalType": "bytes",
          "name": "data",
          "type": "bytes"
        }
      ],
      "name": "Execute",
      "type": "event"
    },
    {
      "anonymous": false,
      "inputs": [
        {
          "indexed": true,
          "internalType": "address",
          "name": "oldGovernance",
          "type": "address"
        },
        {
          "indexed": true,
          "internalType": "address",
          "name": "newGovernance",
          "type": "address"
        }
      ],
      "name": "GovernanceUpdated",
      "type": "event"
    },
    {
      "anonymous": false,
      "inputs": [
        {
          "indexed": true,
          "internalType": "address",
          "name": "module",
          "type": "address"
        },
        {
          "indexed": true,
          "internalType": "address",
          "name": "to",
          "type": "address"
        },
        {
          "indexed": false,
          "internalType": "uint256",
          "name": "value",
          "type": "uint256"
        },
        {
          "indexed": false,
          "internalType": "bytes",
          "name": "data",
          "type": "bytes"
        }
      ],
      "name": "ModuleExecute",
      "type": "event"
    },
    {
      "anonymous": false,
      "inputs": [
        {
          "indexed": true,
          "internalType": "address",
          "name": "previousOwner",
          "type": "address"
        },
        {
          "indexed": true,
          "internalType": "address",
          "name": "newOwner",
          "type": "address"
        }
      ],
      "name": "OwnershipTransferred",
      "type": "event"
    },
    {
      "anonymous": false,
      "inputs": [
        {
          "indexed": true,
          "internalType": "address",
          "name": "sender",
          "type": "address"
        },
        {
          "indexed": false,
          "internalType": "uint256",
          "name": "value",
          "type": "uint256"
        },
        {
          "indexed": false,
          "internalType": "bytes",
          "name": "data",
          "type": "bytes"
        }
      ],
      "name": "Received",
      "type": "event"
    },
    {
      "anonymous": false,
      "inputs": [
        {
          "indexed": true,
          "internalType": "address",
          "name": "from",
          "type": "address"
        },
        {
          "indexed": true,
          "internalType": "address",
          "name": "to",
          "type": "address"
        },
        {
          "indexed": false,
          "internalType": "uint256",
          "name": "value",
          "type": "uint256"
        }
      ],
      "name": "Transfer",
      "type": "event"
    },
    {
      "stateMutability": "payable",
      "type": "fallback"
    },
    {
      "inputs": [],
      "name": "ALLOW_GOVERNANCE_UPGRADE",
      "outputs": [
        {
          "internalType": "bytes32",
          "name": "",
          "type": "bytes32"
        }
      ],
      "stateMutability": "view",
      "type": "function"
    },
    {
      "inputs": [
        {
          "internalType": "address",
          "name": "owner",
          "type": "address"
        },
        {
          "internalType": "address",
          "name": "spender",
          "type": "address"
        }
      ],
      "name": "allowance",
      "outputs": [
        {
          "internalType": "uint256",
          "name": "",
          "type": "uint256"
        }
      ],
      "stateMutability": "view",
      "type": "function"
    },
    {
      "inputs": [
        {
          "internalType": "address",
          "name": "spender",
          "type": "address"
        },
        {
          "internalType": "uint256",
          "name": "amount",
          "type": "uint256"
        }
      ],
      "name": "approve",
      "outputs": [
        {
          "internalType": "bool",
          "name": "",
          "type": "bool"
        }
      ],
      "stateMutability": "nonpayable",
      "type": "function"
    },
    {
      "inputs": [
        {
          "internalType": "address",
          "name": "spender",
          "type": "address"
        },
        {
          "internalType": "uint256",
          "name": "value",
          "type": "uint256"
        }
      ],
      "name": "approveAndCall",
      "outputs": [
        {
          "internalType": "bool",
          "name": "",
          "type": "bool"
        }
      ],
      "stateMutability": "nonpayable",
      "type": "function"
    },
    {
      "inputs": [
        {
          "internalType": "address",
          "name": "spender",
          "type": "address"
        },
        {
          "internalType": "uint256",
          "name": "value",
          "type": "uint256"
        },
        {
          "internalType": "bytes",
          "name": "data",
          "type": "bytes"
        }
      ],
      "name": "approveAndCall",
      "outputs": [
        {
          "internalType": "bool",
          "name": "",
          "type": "bool"
        }
      ],
      "stateMutability": "nonpayable",
      "type": "function"
    },
    {
      "inputs": [],
      "name": "artistWallet",
      "outputs": [
        {
          "internalType": "address",
          "name": "",
          "type": "address"
        }
      ],
      "stateMutability": "view",
      "type": "function"
    },
    {
      "inputs": [
        {
          "internalType": "address",
          "name": "account",
          "type": "address"
        }
      ],
      "name": "balanceOf",
      "outputs": [
        {
          "internalType": "uint256",
          "name": "",
          "type": "uint256"
        }
      ],
      "stateMutability": "view",
      "type": "function"
    },
    {
      "inputs": [
        {
          "internalType": "uint256",
          "name": "amount",
          "type": "uint256"
        }
      ],
      "name": "burn",
      "outputs": [],
      "stateMutability": "nonpayable",
      "type": "function"
    },
    {
      "inputs": [
        {
          "internalType": "address",
          "name": "account",
          "type": "address"
        },
        {
          "internalType": "uint256",
          "name": "amount",
          "type": "uint256"
        }
      ],
      "name": "burnFrom",
      "outputs": [],
      "stateMutability": "nonpayable",
      "type": "function"
    },
    {
      "inputs": [],
      "name": "decimals",
      "outputs": [
        {
          "internalType": "uint8",
          "name": "",
          "type": "uint8"
        }
      ],
      "stateMutability": "view",
      "type": "function"
    },
    {
      "inputs": [
        {
          "internalType": "address",
          "name": "spender",
          "type": "address"
        },
        {
          "internalType": "uint256",
          "name": "subtractedValue",
          "type": "uint256"
        }
      ],
      "name": "decreaseAllowance",
      "outputs": [
        {
          "internalType": "bool",
          "name": "",
          "type": "bool"
        }
      ],
      "stateMutability": "nonpayable",
      "type": "function"
    },
    {
      "inputs": [
        {
          "internalType": "address",
          "name": "to",
          "type": "address"
        },
        {
          "internalType": "uint256",
          "name": "value",
          "type": "uint256"
        },
        {
          "internalType": "bytes",
          "name": "data",
          "type": "bytes"
        }
      ],
      "name": "execute",
      "outputs": [],
      "stateMutability": "nonpayable",
      "type": "function"
    },
    {
      "inputs": [],
      "name": "governance",
      "outputs": [
        {
          "internalType": "contract IGovernance",
          "name": "",
          "type": "address"
        }
      ],
      "stateMutability": "view",
      "type": "function"
    },
    {
      "inputs": [
        {
          "internalType": "address",
          "name": "spender",
          "type": "address"
        },
        {
          "internalType": "uint256",
          "name": "addedValue",
          "type": "uint256"
        }
      ],
      "name": "increaseAllowance",
      "outputs": [
        {
          "internalType": "bool",
          "name": "",
          "type": "bool"
        }
      ],
      "stateMutability": "nonpayable",
      "type": "function"
    },
    {
      "inputs": [
        {
          "internalType": "address",
          "name": "governance_",
          "type": "address"
        },
        {
          "internalType": "address",
          "name": "minter_",
          "type": "address"
        },
        {
          "internalType": "string",
          "name": "name_",
          "type": "string"
        },
        {
          "internalType": "string",
          "name": "symbol_",
          "type": "string"
        },
        {
          "internalType": "address",
          "name": "artistWallet_",
          "type": "address"
        }
      ],
      "name": "initialize",
      "outputs": [],
      "stateMutability": "nonpayable",
      "type": "function"
    },
    {
      "inputs": [
        {
          "internalType": "address",
          "name": "from",
          "type": "address"
        },
        {
          "internalType": "uint256",
          "name": "value",
          "type": "uint256"
        }
      ],
      "name": "moduleBurn",
      "outputs": [],
      "stateMutability": "nonpayable",
      "type": "function"
    },
    {
      "inputs": [
        {
          "internalType": "address",
          "name": "to",
          "type": "address"
        },
        {
          "internalType": "uint256",
          "name": "value",
          "type": "uint256"
        },
        {
          "internalType": "bytes",
          "name": "data",
          "type": "bytes"
        }
      ],
      "name": "moduleExecute",
      "outputs": [],
      "stateMutability": "nonpayable",
      "type": "function"
    },
    {
      "inputs": [
        {
          "internalType": "address",
          "name": "to",
          "type": "address"
        },
        {
          "internalType": "uint256",
          "name": "value",
          "type": "uint256"
        }
      ],
      "name": "moduleMint",
      "outputs": [],
      "stateMutability": "nonpayable",
      "type": "function"
    },
    {
      "inputs": [
        {
          "internalType": "address",
          "name": "from",
          "type": "address"
        },
        {
          "internalType": "address",
          "name": "to",
          "type": "address"
        },
        {
          "internalType": "uint256",
          "name": "value",
          "type": "uint256"
        }
      ],
      "name": "moduleTransfer",
      "outputs": [],
      "stateMutability": "nonpayable",
      "type": "function"
    },
    {
      "inputs": [
        {
          "internalType": "address",
          "name": "to",
          "type": "address"
        }
      ],
      "name": "moduleTransferOwnership",
      "outputs": [],
      "stateMutability": "nonpayable",
      "type": "function"
    },
    {
      "inputs": [],
      "name": "name",
      "outputs": [
        {
          "internalType": "string",
          "name": "",
          "type": "string"
        }
      ],
      "stateMutability": "view",
      "type": "function"
    },
    {
      "inputs": [],
      "name": "owner",
      "outputs": [
        {
          "internalType": "address",
          "name": "",
          "type": "address"
        }
      ],
      "stateMutability": "view",
      "type": "function"
    },
    {
      "inputs": [],
      "name": "renounceOwnership",
      "outputs": [],
      "stateMutability": "nonpayable",
      "type": "function"
    },
    {
      "inputs": [
        {
          "internalType": "address",
          "name": "newOwner",
          "type": "address"
        }
      ],
      "name": "retrieve",
      "outputs": [],
      "stateMutability": "nonpayable",
      "type": "function"
    },
    {
      "inputs": [],
      "name": "symbol",
      "outputs": [
        {
          "internalType": "string",
          "name": "",
          "type": "string"
        }
      ],
      "stateMutability": "view",
      "type": "function"
    },
    {
      "inputs": [],
      "name": "totalSupply",
      "outputs": [
        {
          "internalType": "uint256",
          "name": "",
          "type": "uint256"
        }
      ],
      "stateMutability": "view",
      "type": "function"
    },
    {
      "inputs": [
        {
          "internalType": "address",
          "name": "recipient",
          "type": "address"
        },
        {
          "internalType": "uint256",
          "name": "amount",
          "type": "uint256"
        }
      ],
      "name": "transfer",
      "outputs": [
        {
          "internalType": "bool",
          "name": "",
          "type": "bool"
        }
      ],
      "stateMutability": "nonpayable",
      "type": "function"
    },
    {
      "inputs": [
        {
          "internalType": "address",
          "name": "sender",
          "type": "address"
        },
        {
          "internalType": "address",
          "name": "recipient",
          "type": "address"
        },
        {
          "internalType": "uint256",
          "name": "amount",
          "type": "uint256"
        }
      ],
      "name": "transferFrom",
      "outputs": [
        {
          "internalType": "bool",
          "name": "",
          "type": "bool"
        }
      ],
      "stateMutability": "nonpayable",
      "type": "function"
    },
    {
      "inputs": [
        {
          "internalType": "address",
          "name": "newOwner",
          "type": "address"
        }
      ],
      "name": "transferOwnership",
      "outputs": [],
      "stateMutability": "nonpayable",
      "type": "function"
    },
    {
      "inputs": [
        {
          "internalType": "address",
          "name": "newArtistWallet",
          "type": "address"
        }
      ],
      "name": "updateArtistWallet",
      "outputs": [],
      "stateMutability": "nonpayable",
      "type": "function"
    },
    {
      "inputs": [
        {
          "internalType": "address",
          "name": "newGovernance",
          "type": "address"
        }
      ],
      "name": "updateGovernance",
      "outputs": [],
      "stateMutability": "nonpayable",
      "type": "function"
    },
    {
      "stateMutability": "payable",
      "type": "receive"
    }
  ],
  "bytecode": "0x608060405234801561001057600080fd5b50600680546001600160a01b03191661dead1790556124d1806100346000396000f3fe6080604052600436106101db5760003560e01c806370a0823111610102578063a457c2d711610095578063cae9ca5111610064578063cae9ca51146106e3578063dd62ed3e14610703578063df01e4bf14610723578063f2fde38b1461074357610229565b8063a457c2d714610663578063a9059cbb14610683578063b2561263146106a3578063b61d27f6146106c357610229565b806391b98e0e116100d157806391b98e0e146105f957806395d89b41146106195780639eb996d41461062e578063a3342fba1461064e57610229565b806370a082311461058f578063715018a6146105af57806379cc6790146105c45780638da5cb5b146105e457610229565b80633177029f1161017a57806342966c681161014957806342966c681461050d5780634e26463f1461052d5780635aa6e6751461054d57806363f10c6d1461056f57610229565b80633177029f1461048d578063362925c2146104ad57806336afba80146104cd57806339509351146104ed57610229565b80630a79309b116101b65780630a79309b1461041457806318160ddd1461043657806323b872dd1461044b578063313ce5671461046b57610229565b80627cae031461039a57806306fdde03146103c5578063095ea7b3146103e757610229565b36610229576040805160208101825260008152905133917f89e8e1406eb88cbdf591b5eeb74b6d10cbda6e6ff4190b83ed226e54a1e6c4fb9161021f91349161229a565b60405180910390a2005b600654604051632a758b2960e21b81526000916001600160a01b03169063a9d62ca4906102679030906001600160e01b031986351690600401611cab565b60206040518083038186803b15801561027f57600080fd5b505afa158015610293573d6000803e3d6000fd5b505050506040513d601f19601f820116820180604052508101906102b79190611925565b90506001600160a01b038116158015906102d557506102d581610763565b15610351576000816001600160a01b03166000366040516102f7929190611c38565b600060405180830381855afa9150503d8060008114610332576040519150601f19603f3d011682016040523d82523d6000602084013e610337565b606091505b505090503d6000803e80801561034c573d6000f35b3d6000fd5b336001600160a01b03167f89e8e1406eb88cbdf591b5eeb74b6d10cbda6e6ff4190b83ed226e54a1e6c4fb3460003660405161038f93929190612264565b60405180910390a250005b3480156103a657600080fd5b506103af6107ec565b6040516103bc9190611d09565b60405180910390f35b3480156103d157600080fd5b506103da610810565b6040516103bc9190611d12565b3480156103f357600080fd5b50610407610402366004611a5f565b6108a3565b6040516103bc9190611cfe565b34801561042057600080fd5b5061043461042f366004611909565b6108c0565b005b34801561044257600080fd5b506103af6108e7565b34801561045757600080fd5b50610407610466366004611a1f565b6108ed565b34801561047757600080fd5b5061048061098f565b6040516103bc91906122b3565b34801561049957600080fd5b506104076104a8366004611a5f565b610994565b3480156104b957600080fd5b506104346104c8366004611979565b6109b0565b3480156104d957600080fd5b506104346104e8366004611909565b610a9f565b3480156104f957600080fd5b50610407610508366004611a5f565b610ac4565b34801561051957600080fd5b50610434610528366004611bdc565b610b13565b34801561053957600080fd5b50610434610548366004611a5f565b610b24565b34801561055957600080fd5b50610562610b57565b6040516103bc9190611c64565b34801561057b57600080fd5b5061043461058a366004611a8a565b610b66565b34801561059b57600080fd5b506103af6105aa366004611909565b610c40565b3480156105bb57600080fd5b50610434610c5b565b3480156105d057600080fd5b506104346105df366004611a5f565b610c9c565b3480156105f057600080fd5b50610562610cf1565b34801561060557600080fd5b50610434610614366004611a5f565b610d00565b34801561062557600080fd5b506103da610d2f565b34801561063a57600080fd5b50610434610649366004611a1f565b610d3e565b34801561065a57600080fd5b50610562610d6e565b34801561066f57600080fd5b5061040761067e366004611a5f565b610d7d565b34801561068f57600080fd5b5061040761069e366004611a5f565b610df8565b3480156106af57600080fd5b506104346106be366004611909565b610e0c565b3480156106cf57600080fd5b506104346106de366004611a8a565b610f4b565b3480156106ef57600080fd5b506104076106fe366004611ae4565b61100e565b34801561070f57600080fd5b506103af61071e366004611941565b61113f565b34801561072f57600080fd5b5061043461073e366004611909565b61116a565b34801561074f57600080fd5b5061043461075e366004611909565b6111eb565b6006546040516376e5694160e11b81526000916001600160a01b03169063edcad282906107969030908690600401611c78565b60206040518083038186803b1580156107ae57600080fd5b505afa1580156107c2573d6000803e3d6000fd5b505050506040513d601f19601f820116820180604052508101906107e69190611b94565b92915050565b7fedde61aea0459bc05d70dd3441790ccfb6c17980a380201b00eca6f9ef50452a81565b60606004805461081f90612320565b80601f016020809104026020016040519081016040528092919081815260200182805461084b90612320565b80156108985780601f1061086d57610100808354040283529160200191610898565b820191906000526020600020905b81548152906001019060200180831161087b57829003601f168201915b505050505090505b90565b60006108b76108b0611246565b848461124a565b50600192915050565b6108db336108d66108cf6108e7565b60016112fe565b611315565b6108e4816113fb565b50565b60035490565b60006108fa848484611456565b6001600160a01b03841660009081526002602052604081208161091b611246565b6001600160a01b03166001600160a01b03168152602001908152602001600020549050828110156109675760405162461bcd60e51b815260040161095e90612026565b60405180910390fd5b61098285610973611246565b61097d86856122d9565b61124a565b60019150505b9392505050565b601290565b600061098883836040518060200160405280600081525061100e565b600680546001600160a01b0319166001600160a01b0389161790556109d4866113fb565b610a4785858080601f01602080910402602001604051908101604052809392919081815260200183838082843760009201919091525050604080516020601f8901819004810282018101909252878152925087915086908190840183828082843760009201919091525061157092505050565b600780546001600160a01b0319166001600160a01b0383811691909117909155604051908816906000907f434a2db650703b36c824e745330d6397cdaa9ee2cc891a4938ae853e1c50b68d908290a350505050505050565b610aa833610763565b6108db5760405162461bcd60e51b815260040161095e90611e7c565b60006108b7610ad1611246565b848460026000610adf611246565b6001600160a01b03908116825260208083019390935260409182016000908120918b168152925290205461097d91906122c1565b6108e4610b1e611246565b82611315565b610b2d33610763565b610b495760405162461bcd60e51b815260040161095e90611e7c565b610b538282611597565b5050565b6006546001600160a01b031681565b610b6f33610763565b610b8b5760405162461bcd60e51b815260040161095e90611e7c565b610b9484611657565b15610be157610bdb8483838080601f016020809104026020016040519081016040528093929190818152602001838380828437600092019190915250889250611666915050565b50610beb565b610beb8484611694565b836001600160a01b0316336001600160a01b03167f504b363987df7fd48ba6ee9a85fc09baa8c0cc3ccd6fe9adccae2ccba2cf00b1858585604051610c3293929190612264565b60405180910390a350505050565b6001600160a01b031660009081526001602052604090205490565b610c63611246565b6000546001600160a01b03908116911614610c905760405162461bcd60e51b815260040161095e9061206e565b610c9a60006113fb565b565b6000610caa8361071e611246565b905081811015610ccc5760405162461bcd60e51b815260040161095e906120a3565b610ce283610cd8611246565b61097d85856122d9565b610cec8383611315565b505050565b6000546001600160a01b031690565b610d0933610763565b610d255760405162461bcd60e51b815260040161095e90611e7c565b610b538282611315565b60606005805461081f90612320565b610d4733610763565b610d635760405162461bcd60e51b815260040161095e90611e7c565b610cec838383611456565b6007546001600160a01b031681565b60008060026000610d8c611246565b6001600160a01b0390811682526020808301939093526040918201600090812091881681529252902054905082811015610dd85760405162461bcd60e51b815260040161095e906121e8565b610dee610de3611246565b8561097d86856122d9565b5060019392505050565b60006108b7610e05611246565b8484611456565b610e1533610763565b610e315760405162461bcd60e51b815260040161095e90611e7c565b6006546040516001600160a01b038084169216907f434a2db650703b36c824e745330d6397cdaa9ee2cc891a4938ae853e1c50b68d90600090a3600654604051627ebcdb60e21b81526000916001600160a01b0316906301faf36c90610ebd9030907fedde61aea0459bc05d70dd3441790ccfb6c17980a380201b00eca6f9ef50452a90600401611c92565b60206040518083038186803b158015610ed557600080fd5b505afa158015610ee9573d6000803e3d6000fd5b505050506040513d601f19601f82011682018060405250810190610f0d9190611bf4565b11610f1757600080fd5b610f2081611657565b610f2957600080fd5b600680546001600160a01b0319166001600160a01b0392909216919091179055565b610f53611246565b6000546001600160a01b03908116911614610f805760405162461bcd60e51b815260040161095e9061206e565b610fc28483838080601f016020809104026020016040519081016040528093929190818152602001838380828437600092019190915250889250611666915050565b50836001600160a01b03167f4a0de09071d37e2800c1dcc9027a0030cd5202f3a5a766952307470adc640c5784848460405161100093929190612264565b60405180910390a250505050565b600061101a84846108a3565b61102357600080fd5b836001600160a01b0316637b04a2d061103a611246565b85856040518463ffffffff1660e01b815260040161105a93929190611cce565b602060405180830381600087803b15801561107457600080fd5b505af19250505080156110a4575060408051601f3d908101601f191682019092526110a191810190611bb4565b60015b611104576110b06123b4565b806308c379a014156110ea57506110c56123cb565b806110d057506110ec565b8060405162461bcd60e51b815260040161095e9190611d12565b505b60405162461bcd60e51b815260040161095e90611fd3565b6001600160e01b031981166307b04a2d60e41b146111345760405162461bcd60e51b815260040161095e90611daa565b505060019392505050565b6001600160a01b03918216600090815260026020908152604080832093909416825291909152205490565b61117333610763565b61118f5760405162461bcd60e51b815260040161095e90611e7c565b6007546040516001600160a01b038084169216907f5413ae380ad3da3cce6ed6c1fcb658884e7261a3bb593a23cbc6dd8091e58d9890600090a3600780546001600160a01b0319166001600160a01b0392909216919091179055565b6111f3611246565b6000546001600160a01b039081169116146112205760405162461bcd60e51b815260040161095e9061206e565b6001600160a01b0381166108db5760405162461bcd60e51b815260040161095e90611df4565b3390565b6001600160a01b0383166112705760405162461bcd60e51b815260040161095e9061216d565b6001600160a01b0382166112965760405162461bcd60e51b815260040161095e90611e3a565b6001600160a01b0380841660008181526002602090815260408083209487168084529490915290819020849055517f8c5be1e5ebec7d5bd14f71427d1e84f3dd0314c0f7b2291e5b200ac8c7c3b925906112f1908590611d09565b60405180910390a3505050565b60008183101561130e5781610988565b5090919050565b6001600160a01b03821661133b5760405162461bcd60e51b815260040161095e906120e7565b61134782600083610cec565b6001600160a01b038216600090815260016020526040902054818110156113805760405162461bcd60e51b815260040161095e90611d68565b61138a82826122d9565b6001600160a01b038416600090815260016020526040812091909155600380548492906113b89084906122d9565b90915550506040516000906001600160a01b038516907fddf252ad1be2c89b69c2b068fc378daa952ba7f163c4a11628f55a4df523b3ef906112f1908690611d09565b600080546040516001600160a01b03808516939216917f8be0079c531659141344cd1fd0a4f28419497f9722a3daafe3b4186f6b6457e091a3600080546001600160a01b0319166001600160a01b0392909216919091179055565b6001600160a01b03831661147c5760405162461bcd60e51b815260040161095e90612128565b6001600160a01b0382166114a25760405162461bcd60e51b815260040161095e90611d25565b6114ad838383610cec565b6001600160a01b038316600090815260016020526040902054818110156114e65760405162461bcd60e51b815260040161095e90611eb3565b6114f082826122d9565b6001600160a01b0380861660009081526001602052604080822093909355908516815290812080548492906115269084906122c1565b92505081905550826001600160a01b0316846001600160a01b03167fddf252ad1be2c89b69c2b068fc378daa952ba7f163c4a11628f55a4df523b3ef84604051610c329190611d09565b8151611583906004906020850190611829565b508051610cec906005906020840190611829565b6001600160a01b0382166115bd5760405162461bcd60e51b815260040161095e9061222d565b6115c960008383610cec565b80600360008282546115db91906122c1565b90915550506001600160a01b038216600090815260016020526040812080548392906116089084906122c1565b90915550506040516001600160a01b038316906000907fddf252ad1be2c89b69c2b068fc378daa952ba7f163c4a11628f55a4df523b3ef9061164b908590611d09565b60405180910390a35050565b6001600160a01b03163b151590565b606061168c84848460405180606001604052806029815260200161247360299139611730565b949350505050565b804710156116b45760405162461bcd60e51b815260040161095e90611f56565b6000826001600160a01b0316826040516116cd906108a0565b60006040518083038185875af1925050503d806000811461170a576040519150601f19603f3d011682016040523d82523d6000602084013e61170f565b606091505b5050905080610cec5760405162461bcd60e51b815260040161095e90611ef9565b6060824710156117525760405162461bcd60e51b815260040161095e90611f8d565b61175b85611657565b6117775760405162461bcd60e51b815260040161095e906121b1565b600080866001600160a01b031685876040516117939190611c48565b60006040518083038185875af1925050503d80600081146117d0576040519150601f19603f3d011682016040523d82523d6000602084013e6117d5565b606091505b50915091506117e58282866117f0565b979650505050505050565b606083156117ff575081610988565b82511561180f5782518084602001fd5b8160405162461bcd60e51b815260040161095e9190611d12565b82805461183590612320565b90600052602060002090601f016020900481019282611857576000855561189d565b82601f1061187057805160ff191683800117855561189d565b8280016001018555821561189d579182015b8281111561189d578251825591602001919060010190611882565b506118a99291506118ad565b5090565b5b808211156118a957600081556001016118ae565b60008083601f8401126118d3578182fd5b50813567ffffffffffffffff8111156118ea578182fd5b60208301915083602082850101111561190257600080fd5b9250929050565b60006020828403121561191a578081fd5b81356109888161245d565b600060208284031215611936578081fd5b81516109888161245d565b60008060408385031215611953578081fd5b823561195e8161245d565b9150602083013561196e8161245d565b809150509250929050565b600080600080600080600060a0888a031215611993578283fd5b873561199e8161245d565b965060208801356119ae8161245d565b9550604088013567ffffffffffffffff808211156119ca578485fd5b6119d68b838c016118c2565b909750955060608a01359150808211156119ee578485fd5b506119fb8a828b016118c2565b9094509250506080880135611a0f8161245d565b8091505092959891949750929550565b600080600060608486031215611a33578283fd5b8335611a3e8161245d565b92506020840135611a4e8161245d565b929592945050506040919091013590565b60008060408385031215611a71578182fd5b8235611a7c8161245d565b946020939093013593505050565b60008060008060608587031215611a9f578384fd5b8435611aaa8161245d565b935060208501359250604085013567ffffffffffffffff811115611acc578283fd5b611ad8878288016118c2565b95989497509550505050565b600080600060608486031215611af8578283fd5b8335611b038161245d565b92506020848101359250604085013567ffffffffffffffff80821115611b27578384fd5b818701915087601f830112611b3a578384fd5b813581811115611b4c57611b4c61239e565b6040519150611b64601f8201601f191685018361235b565b8082528884828501011115611b77578485fd5b808484018584013784848284010152508093505050509250925092565b600060208284031215611ba5578081fd5b81518015158114610988578182fd5b600060208284031215611bc5578081fd5b81516001600160e01b031981168114610988578182fd5b600060208284031215611bed578081fd5b5035919050565b600060208284031215611c05578081fd5b5051919050565b60008151808452611c248160208601602086016122f0565b601f01601f19169290920160200192915050565b6000828483379101908152919050565b60008251611c5a8184602087016122f0565b9190910192915050565b6001600160a01b0391909116815260200190565b6001600160a01b0392831681529116602082015260400190565b6001600160a01b03929092168252602082015260400190565b6001600160a01b039290921682526001600160e01b031916602082015260400190565b600060018060a01b038516825283602083015260606040830152611cf56060830184611c0c565b95945050505050565b901515815260200190565b90815260200190565b6000602082526109886020830184611c0c565b60208082526023908201527f45524332303a207472616e7366657220746f20746865207a65726f206164647260408201526265737360e81b606082015260800190565b60208082526022908201527f45524332303a206275726e20616d6f756e7420657863656564732062616c616e604082015261636560f01b606082015260800190565b6020808252602a908201527f455243313336333a206f6e417070726f76616c526563656976656420696e76616040820152691b1a59081c995cdd5b1d60b21b606082015260800190565b60208082526026908201527f4f776e61626c653a206e6577206f776e657220697320746865207a65726f206160408201526564647265737360d01b606082015260800190565b60208082526022908201527f45524332303a20617070726f766520746f20746865207a65726f206164647265604082015261737360f01b606082015260800190565b6020808252601c908201527f416363657373207265737472696374656420746f206d6f64756c657300000000604082015260600190565b60208082526026908201527f45524332303a207472616e7366657220616d6f756e7420657863656564732062604082015265616c616e636560d01b606082015260800190565b6020808252603a908201527f416464726573733a20756e61626c6520746f2073656e642076616c75652c207260408201527f6563697069656e74206d61792068617665207265766572746564000000000000606082015260800190565b6020808252601d908201527f416464726573733a20696e73756666696369656e742062616c616e6365000000604082015260600190565b60208082526026908201527f416464726573733a20696e73756666696369656e742062616c616e636520666f6040820152651c8818d85b1b60d21b606082015260800190565b60208082526033908201527f455243313336333a206f6e417070726f76616c52656365697665642072657665604082015272393a32b2103bb4ba3437baba103932b0b9b7b760691b606082015260800190565b60208082526028908201527f45524332303a207472616e7366657220616d6f756e74206578636565647320616040820152676c6c6f77616e636560c01b606082015260800190565b6020808252818101527f4f776e61626c653a2063616c6c6572206973206e6f7420746865206f776e6572604082015260600190565b60208082526024908201527f45524332303a206275726e20616d6f756e74206578636565647320616c6c6f77604082015263616e636560e01b606082015260800190565b60208082526021908201527f45524332303a206275726e2066726f6d20746865207a65726f206164647265736040820152607360f81b606082015260800190565b60208082526025908201527f45524332303a207472616e736665722066726f6d20746865207a65726f206164604082015264647265737360d81b606082015260800190565b60208082526024908201527f45524332303a20617070726f76652066726f6d20746865207a65726f206164646040820152637265737360e01b606082015260800190565b6020808252601d908201527f416464726573733a2063616c6c20746f206e6f6e2d636f6e7472616374000000604082015260600190565b60208082526025908201527f45524332303a2064656372656173656420616c6c6f77616e63652062656c6f77604082015264207a65726f60d81b606082015260800190565b6020808252601f908201527f45524332303a206d696e7420746f20746865207a65726f206164647265737300604082015260600190565b60008482526040602083015282604083015282846060840137818301606090810191909152601f909201601f1916010192915050565b60008382526040602083015261168c6040830184611c0c565b60ff91909116815260200190565b600082198211156122d4576122d4612388565b500190565b6000828210156122eb576122eb612388565b500390565b60005b8381101561230b5781810151838201526020016122f3565b8381111561231a576000848401525b50505050565b60028104600182168061233457607f821691505b6020821081141561235557634e487b7160e01b600052602260045260246000fd5b50919050565b601f8201601f1916810167ffffffffffffffff811182821017156123815761238161239e565b6040525050565b634e487b7160e01b600052601160045260246000fd5b634e487b7160e01b600052604160045260246000fd5b600060033d11156108a057600481823e5160e01c90565b600060443d10156123db576108a0565b6040516003193d81016004833e81513d67ffffffffffffffff816024840111818411171561240d5750505050506108a0565b8285019150815181811115612427575050505050506108a0565b843d8701016020828501011115612443575050505050506108a0565b6124526020828601018761235b565b509094505050505090565b6001600160a01b03811681146108e457600080fdfe416464726573733a206c6f772d6c6576656c2063616c6c20776974682076616c7565206661696c6564a2646970667358221220157d78b191387e9314e78058a1a28b4b2963c6f831e93fadde77d8a878c4718264736f6c63430008010033",
  "linkReferences": {},
  "deployedLinkReferences": {}
}